{"abi":[{"type":"constructor","inputs":[{"name":"_callback_sender","type":"address","internalType":"address"},{"name":"_manager","type":"address","internalType":"contract IPoolManager"},{"name":"_swapRouter","type":"address","internalType":"contract IUniversalRouter"}],"stateMutability":"nonpayable"},{"type":"fallback","stateMutability":"payable"},{"type":"receive","stateMutability":"payable"},{"type":"function","name":"REACTIVE_PLUGIN_FACTORY","inputs":[],"outputs":[{"name":"","type":"address","internalType":"contract ReactivePluginFactory"}],"stateMutability":"view"},{"type":"function","name":"afterAddLiquidity","inputs":[{"name":"sender","type":"address","internalType":"address"},{"name":"key","type":"tuple","internalType":"struct PoolKey","components":[{"name":"currency0","type":"address","internalType":"Currency"},{"name":"currency1","type":"address","internalType":"Currency"},{"name":"fee","type":"uint24","internalType":"uint24"},{"name":"tickSpacing","type":"int24","internalType":"int24"},{"name":"hooks","type":"address","internalType":"contract IHooks"}]},{"name":"params","type":"tuple","internalType":"struct ModifyLiquidityParams","components":[{"name":"tickLower","type":"int24","internalType":"int24"},{"name":"tickUpper","type":"int24","internalType":"int24"},{"name":"liquidityDelta","type":"int256","internalType":"int256"},{"name":"salt","type":"bytes32","internalType":"bytes32"}]},{"name":"delta","type":"int256","internalType":"BalanceDelta"},{"name":"feesAccrued","type":"int256","internalType":"BalanceDelta"},{"name":"hookData","type":"bytes","internalType":"bytes"}],"outputs":[{"name":"","type":"bytes4","internalType":"bytes4"},{"name":"","type":"int256","internalType":"BalanceDelta"}],"stateMutability":"nonpayable"},{"type":"function","name":"afterDonate","inputs":[{"name":"sender","type":"address","internalType":"address"},{"name":"key","type":"tuple","internalType":"struct PoolKey","components":[{"name":"currency0","type":"address","internalType":"Currency"},{"name":"currency1","type":"address","internalType":"Currency"},{"name":"fee","type":"uint24","internalType":"uint24"},{"name":"tickSpacing","type":"int24","internalType":"int24"},{"name":"hooks","type":"address","internalType":"contract IHooks"}]},{"name":"amount0","type":"uint256","internalType":"uint256"},{"name":"amount1","type":"uint256","internalType":"uint256"},{"name":"hookData","type":"bytes","internalType":"bytes"}],"outputs":[{"name":"","type":"bytes4","internalType":"bytes4"}],"stateMutability":"nonpayable"},{"type":"function","name":"afterInitialize","inputs":[{"name":"sender","type":"address","internalType":"address"},{"name":"key","type":"tuple","internalType":"struct PoolKey","components":[{"name":"currency0","type":"address","internalType":"Currency"},{"name":"currency1","type":"address","internalType":"Currency"},{"name":"fee","type":"uint24","internalType":"uint24"},{"name":"tickSpacing","type":"int24","internalType":"int24"},{"name":"hooks","type":"address","internalType":"contract IHooks"}]},{"name":"sqrtPriceX96","type":"uint160","internalType":"uint160"},{"name":"tick","type":"int24","internalType":"int24"}],"outputs":[{"name":"","type":"bytes4","internalType":"bytes4"}],"stateMutability":"nonpayable"},{"type":"function","name":"afterRemoveLiquidity","inputs":[{"name":"sender","type":"address","internalType":"address"},{"name":"key","type":"tuple","internalType":"struct PoolKey","components":[{"name":"currency0","type":"address","internalType":"Currency"},{"name":"currency1","type":"address","internalType":"Currency"},{"name":"fee","type":"uint24","internalType":"uint24"},{"name":"tickSpacing","type":"int24","internalType":"int24"},{"name":"hooks","type":"address","internalType":"contract IHooks"}]},{"name":"params","type":"tuple","internalType":"struct ModifyLiquidityParams","components":[{"name":"tickLower","type":"int24","internalType":"int24"},{"name":"tickUpper","type":"int24","internalType":"int24"},{"name":"liquidityDelta","type":"int256","internalType":"int256"},{"name":"salt","type":"bytes32","internalType":"bytes32"}]},{"name":"delta","type":"int256","internalType":"BalanceDelta"},{"name":"feesAccrued","type":"int256","internalType":"BalanceDelta"},{"name":"hookData","type":"bytes","internalType":"bytes"}],"outputs":[{"name":"","type":"bytes4","internalType":"bytes4"},{"name":"","type":"int256","internalType":"BalanceDelta"}],"stateMutability":"nonpayable"},{"type":"function","name":"afterSwap","inputs":[{"name":"sender","type":"address","internalType":"address"},{"name":"key","type":"tuple","internalType":"struct PoolKey","components":[{"name":"currency0","type":"address","internalType":"Currency"},{"name":"currency1","type":"address","internalType":"Currency"},{"name":"fee","type":"uint24","internalType":"uint24"},{"name":"tickSpacing","type":"int24","internalType":"int24"},{"name":"hooks","type":"address","internalType":"contract IHooks"}]},{"name":"params","type":"tuple","internalType":"struct SwapParams","components":[{"name":"zeroForOne","type":"bool","internalType":"bool"},{"name":"amountSpecified","type":"int256","internalType":"int256"},{"name":"sqrtPriceLimitX96","type":"uint160","internalType":"uint160"}]},{"name":"delta","type":"int256","internalType":"BalanceDelta"},{"name":"hookData","type":"bytes","internalType":"bytes"}],"outputs":[{"name":"","type":"bytes4","internalType":"bytes4"},{"name":"","type":"int128","internalType":"int128"}],"stateMutability":"nonpayable"},{"type":"function","name":"beforeAddLiquidity","inputs":[{"name":"sender","type":"address","internalType":"address"},{"name":"key","type":"tuple","internalType":"struct PoolKey","components":[{"name":"currency0","type":"address","internalType":"Currency"},{"name":"currency1","type":"address","internalType":"Currency"},{"name":"fee","type":"uint24","internalType":"uint24"},{"name":"tickSpacing","type":"int24","internalType":"int24"},{"name":"hooks","type":"address","internalType":"contract IHooks"}]},{"name":"params","type":"tuple","internalType":"struct ModifyLiquidityParams","components":[{"name":"tickLower","type":"int24","internalType":"int24"},{"name":"tickUpper","type":"int24","internalType":"int24"},{"name":"liquidityDelta","type":"int256","internalType":"int256"},{"name":"salt","type":"bytes32","internalType":"bytes32"}]},{"name":"hookData","type":"bytes","internalType":"bytes"}],"outputs":[{"name":"","type":"bytes4","internalType":"bytes4"}],"stateMutability":"nonpayable"},{"type":"function","name":"beforeDonate","inputs":[{"name":"sender","type":"address","internalType":"address"},{"name":"key","type":"tuple","internalType":"struct PoolKey","components":[{"name":"currency0","type":"address","internalType":"Currency"},{"name":"currency1","type":"address","internalType":"Currency"},{"name":"fee","type":"uint24","internalType":"uint24"},{"name":"tickSpacing","type":"int24","internalType":"int24"},{"name":"hooks","type":"address","internalType":"contract IHooks"}]},{"name":"amount0","type":"uint256","internalType":"uint256"},{"name":"amount1","type":"uint256","internalType":"uint256"},{"name":"hookData","type":"bytes","internalType":"bytes"}],"outputs":[{"name":"","type":"bytes4","internalType":"bytes4"}],"stateMutability":"nonpayable"},{"type":"function","name":"beforeInitialize","inputs":[{"name":"sender","type":"address","internalType":"address"},{"name":"key","type":"tuple","internalType":"struct PoolKey","components":[{"name":"currency0","type":"address","internalType":"Currency"},{"name":"currency1","type":"address","internalType":"Currency"},{"name":"fee","type":"uint24","internalType":"uint24"},{"name":"tickSpacing","type":"int24","internalType":"int24"},{"name":"hooks","type":"address","internalType":"contract IHooks"}]},{"name":"sqrtPriceX96","type":"uint160","internalType":"uint160"}],"outputs":[{"name":"","type":"bytes4","internalType":"bytes4"}],"stateMutability":"nonpayable"},{"type":"function","name":"beforeRemoveLiquidity","inputs":[{"name":"sender","type":"address","internalType":"address"},{"name":"key","type":"tuple","internalType":"struct PoolKey","components":[{"name":"currency0","type":"address","internalType":"Currency"},{"name":"currency1","type":"address","internalType":"Currency"},{"name":"fee","type":"uint24","internalType":"uint24"},{"name":"tickSpacing","type":"int24","internalType":"int24"},{"name":"hooks","type":"address","internalType":"contract IHooks"}]},{"name":"params","type":"tuple","internalType":"struct ModifyLiquidityParams","components":[{"name":"tickLower","type":"int24","internalType":"int24"},{"name":"tickUpper","type":"int24","internalType":"int24"},{"name":"liquidityDelta","type":"int256","internalType":"int256"},{"name":"salt","type":"bytes32","internalType":"bytes32"}]},{"name":"hookData","type":"bytes","internalType":"bytes"}],"outputs":[{"name":"","type":"bytes4","internalType":"bytes4"}],"stateMutability":"nonpayable"},{"type":"function","name":"beforeSwap","inputs":[{"name":"sender","type":"address","internalType":"address"},{"name":"key","type":"tuple","internalType":"struct PoolKey","components":[{"name":"currency0","type":"address","internalType":"Currency"},{"name":"currency1","type":"address","internalType":"Currency"},{"name":"fee","type":"uint24","internalType":"uint24"},{"name":"tickSpacing","type":"int24","internalType":"int24"},{"name":"hooks","type":"address","internalType":"contract IHooks"}]},{"name":"params","type":"tuple","internalType":"struct SwapParams","components":[{"name":"zeroForOne","type":"bool","internalType":"bool"},{"name":"amountSpecified","type":"int256","internalType":"int256"},{"name":"sqrtPriceLimitX96","type":"uint160","internalType":"uint160"}]},{"name":"hookData","type":"bytes","internalType":"bytes"}],"outputs":[{"name":"","type":"bytes4","internalType":"bytes4"},{"name":"","type":"int256","internalType":"BeforeSwapDelta"},{"name":"","type":"uint24","internalType":"uint24"}],"stateMutability":"nonpayable"},{"type":"function","name":"coverDebt","inputs":[],"outputs":[],"stateMutability":"nonpayable"},{"type":"function","name":"deployReactivePlugin","inputs":[{"name":"chainId","type":"uint256","internalType":"uint256"},{"name":"executor","type":"address","internalType":"address"},{"name":"originContract","type":"address","internalType":"address"},{"name":"topic0","type":"uint256","internalType":"uint256"},{"name":"eventData","type":"tuple","internalType":"struct EventData","components":[{"name":"topic1","type":"uint256","internalType":"uint256"},{"name":"topic2","type":"uint256","internalType":"uint256"},{"name":"topic3","type":"uint256","internalType":"uint256"},{"name":"data","type":"bytes","internalType":"bytes"}]}],"outputs":[],"stateMutability":"nonpayable"},{"type":"function","name":"getHookPermissions","inputs":[],"outputs":[{"name":"","type":"tuple","internalType":"struct Hooks.Permissions","components":[{"name":"beforeInitialize","type":"bool","internalType":"bool"},{"name":"afterInitialize","type":"bool","internalType":"bool"},{"name":"beforeAddLiquidity","type":"bool","internalType":"bool"},{"name":"afterAddLiquidity","type":"bool","internalType":"bool"},{"name":"beforeRemoveLiquidity","type":"bool","internalType":"bool"},{"name":"afterRemoveLiquidity","type":"bool","internalType":"bool"},{"name":"beforeSwap","type":"bool","internalType":"bool"},{"name":"afterSwap","type":"bool","internalType":"bool"},{"name":"beforeDonate","type":"bool","internalType":"bool"},{"name":"afterDonate","type":"bool","internalType":"bool"},{"name":"beforeSwapReturnDelta","type":"bool","internalType":"bool"},{"name":"afterSwapReturnDelta","type":"bool","internalType":"bool"},{"name":"afterAddLiquidityReturnDelta","type":"bool","internalType":"bool"},{"name":"afterRemoveLiquidityReturnDelta","type":"bool","internalType":"bool"}]}],"stateMutability":"pure"},{"type":"function","name":"pay","inputs":[{"name":"amount","type":"uint256","internalType":"uint256"}],"outputs":[],"stateMutability":"nonpayable"},{"type":"function","name":"poolKey","inputs":[],"outputs":[{"name":"currency0","type":"address","internalType":"Currency"},{"name":"currency1","type":"address","internalType":"Currency"},{"name":"fee","type":"uint24","internalType":"uint24"},{"name":"tickSpacing","type":"int24","internalType":"int24"},{"name":"hooks","type":"address","internalType":"contract IHooks"}],"stateMutability":"view"},{"type":"function","name":"poolManager","inputs":[],"outputs":[{"name":"","type":"address","internalType":"contract IPoolManager"}],"stateMutability":"view"},{"type":"function","name":"swapRouter","inputs":[],"outputs":[{"name":"","type":"address","internalType":"contract IUniversalRouter"}],"stateMutability":"view"},{"type":"event","name":"RequestReactivePlugin","inputs":[{"name":"chainId","type":"uint256","indexed":true,"internalType":"uint256"},{"name":"originContract","type":"address","indexed":true,"internalType":"address"},{"name":"topic0","type":"uint256","indexed":true,"internalType":"uint256"},{"name":"topic1","type":"uint256","indexed":false,"internalType":"uint256"},{"name":"topic2","type":"uint256","indexed":false,"internalType":"uint256"},{"name":"topic3","type":"uint256","indexed":false,"internalType":"uint256"},{"name":"data","type":"bytes","indexed":false,"internalType":"bytes"},{"name":"callData","type":"tuple","indexed":false,"internalType":"struct Calldata","components":[{"name":"executor","type":"address","internalType":"address"},{"name":"callData","type":"bytes","internalType":"bytes"}]}],"anonymous":false},{"type":"error","name":"AddressEmptyCode","inputs":[{"name":"target","type":"address","internalType":"address"}]},{"type":"error","name":"ExtensionNotRegistered","inputs":[{"name":"executor","type":"address","internalType":"address"}]},{"type":"error","name":"FailedCall","inputs":[]},{"type":"error","name":"HookNotImplemented","inputs":[]},{"type":"error","name":"InsufficientBalance","inputs":[{"name":"balance","type":"uint256","internalType":"uint256"},{"name":"needed","type":"uint256","internalType":"uint256"}]},{"type":"error","name":"NotPoolManager","inputs":[]}],"bytecode":{"object":"0x60c060405260014261001191906106ec565b60065534801561001f575f80fd5b50604051613fb4380380613fb4833981810160405281019061004191906107f3565b82828080833360025f6101000a81548173ffffffffffffffffffffffffffffffffffffffff021916908373ffffffffffffffffffffffffffffffffffffffff160217905550805f806101000a81548173ffffffffffffffffffffffffffffffffffffffff021916908373ffffffffffffffffffffffffffffffffffffffff1602179055506100d48161016460201b60201c565b508073ffffffffffffffffffffffffffffffffffffffff1660808173ffffffffffffffffffffffffffffffffffffffff168152505050610119306101bb60201b60201c565b5050508060075f6101000a81548173ffffffffffffffffffffffffffffffffffffffff021916908373ffffffffffffffffffffffffffffffffffffffff160217905550505050610843565b6001805f8373ffffffffffffffffffffffffffffffffffffffff1673ffffffffffffffffffffffffffffffffffffffff1681526020019081526020015f205f6101000a81548160ff02191690831515021790555050565b6101d8816101cd6101db60201b60201c565b61026360201b60201c565b50565b6101e3610639565b604051806101c001604052805f151581526020016001151581526020015f151581526020015f151581526020015f151581526020015f151581526020015f151581526020015f151581526020015f151581526020015f151581526020015f151581526020015f151581526020015f151581526020015f1515815250905090565b61028e6120008373ffffffffffffffffffffffffffffffffffffffff166105f260201b90919060201c565b1515815f015115151415806102d557506102c96110008373ffffffffffffffffffffffffffffffffffffffff166105f260201b90919060201c565b15158160200151151514155b8061031257506103066108008373ffffffffffffffffffffffffffffffffffffffff166105f260201b90919060201c565b15158160400151151514155b8061034f57506103436104008373ffffffffffffffffffffffffffffffffffffffff166105f260201b90919060201c565b15158160600151151514155b8061038c57506103806102008373ffffffffffffffffffffffffffffffffffffffff166105f260201b90919060201c565b15158160800151151514155b806103c957506103bd6101008373ffffffffffffffffffffffffffffffffffffffff166105f260201b90919060201c565b15158160a00151151514155b8061040557506103f960808373ffffffffffffffffffffffffffffffffffffffff166105f260201b90919060201c565b15158160c00151151514155b80610441575061043560408373ffffffffffffffffffffffffffffffffffffffff166105f260201b90919060201c565b15158160e00151151514155b8061047e575061047160208373ffffffffffffffffffffffffffffffffffffffff166105f260201b90919060201c565b1515816101000151151514155b806104bb57506104ae60108373ffffffffffffffffffffffffffffffffffffffff166105f260201b90919060201c565b1515816101200151151514155b806104f857506104eb60088373ffffffffffffffffffffffffffffffffffffffff166105f260201b90919060201c565b1515816101400151151514155b80610535575061052860048373ffffffffffffffffffffffffffffffffffffffff166105f260201b90919060201c565b1515816101600151151514155b80610572575061056560028373ffffffffffffffffffffffffffffffffffffffff166105f260201b90919060201c565b1515816101800151151514155b806105af57506105a260018373ffffffffffffffffffffffffffffffffffffffff166105f260201b90919060201c565b1515816101a00151151514155b156105ee576105ed8263e65af6a060e01b7bffffffffffffffffffffffffffffffffffffffffffffffffffffffff191661061760201b90919060201c565b5b5050565b5f8082841673ffffffffffffffffffffffffffffffffffffffff161415905092915050565b815f5273ffffffffffffffffffffffffffffffffffffffff811660045260245ffd5b604051806101c001604052805f151581526020015f151581526020015f151581526020015f151581526020015f151581526020015f151581526020015f151581526020015f151581526020015f151581526020015f151581526020015f151581526020015f151581526020015f151581526020015f151581525090565b5f819050919050565b7f4e487b71000000000000000000000000000000000000000000000000000000005f52601160045260245ffd5b5f6106f6826106b6565b9150610701836106b6565b9250828201905080821115610719576107186106bf565b5b92915050565b5f80fd5b5f73ffffffffffffffffffffffffffffffffffffffff82169050919050565b5f61074c82610723565b9050919050565b61075c81610742565b8114610766575f80fd5b50565b5f8151905061077781610753565b92915050565b5f61078782610742565b9050919050565b6107978161077d565b81146107a1575f80fd5b50565b5f815190506107b28161078e565b92915050565b5f6107c282610742565b9050919050565b6107d2816107b8565b81146107dc575f80fd5b50565b5f815190506107ed816107c9565b92915050565b5f805f6060848603121561080a5761080961071f565b5b5f61081786828701610769565b9350506020610828868287016107a4565b9250506040610839868287016107df565b9150509250925092565b60805160a05161370a6108aa5f395f610db601525f81816105a401528181610642015281816107dd015281816108820152818161092701528181610a8b01528181610b3101528181610bd401528181610dda01528181610dff0152610e99015261370a5ff3fe60806040526004361061010c575f3560e01c8063b47b2fb111610094578063c4e833ce11610063578063c4e833ce146103fa578063ccd8e92814610424578063dc4c90d31461044e578063dc98354e14610478578063e1b4af69146104b457610113565b8063b47b2fb11461032f578063b6a8b0fa1461036c578063c290d691146103a8578063c31c9c07146103d057610113565b8063575e24b4116100db578063575e24b4146102255780636c2bbe7e146102635780636fe7e6eb146102a05780637a90b990146102dc5780639f063efc146102f257610113565b8063182148ef1461015757806321d0ee7014610185578063259982e5146101c157806340d168f9146101fd57610113565b3661011357005b5f803681019061012391906120b8565b90506101558160200151825f015173ffffffffffffffffffffffffffffffffffffffff166104f090919063ffffffff16565b005b348015610162575f80fd5b5061016b610505565b60405161017c9594939291906121b2565b60405180910390f35b348015610190575f80fd5b506101ab60048036038101906101a691906122a0565b6105a1565b6040516101b89190612360565b60405180910390f35b3480156101cc575f80fd5b506101e760048036038101906101e291906122a0565b61063f565b6040516101f49190612360565b60405180910390f35b348015610208575f80fd5b50610223600480360381019061021e919061243d565b6106dd565b005b348015610230575f80fd5b5061024b600480360381019061024691906124ee565b6107d8565b60405161025a939291906125ad565b60405180910390f35b34801561026e575f80fd5b506102896004803603810190610284919061260c565b61087e565b6040516102979291906126c9565b60405180910390f35b3480156102ab575f80fd5b506102c660048036038101906102c19190612744565b610924565b6040516102d39190612360565b60405180910390f35b3480156102e7575f80fd5b506102f06109c0565b005b3480156102fd575f80fd5b506103186004803603810190610313919061260c565b610a87565b6040516103269291906126c9565b60405180910390f35b34801561033a575f80fd5b50610355600480360381019061035091906127a9565b610b2d565b60405161036392919061285d565b60405180910390f35b348015610377575f80fd5b50610392600480360381019061038d9190612884565b610bd1565b60405161039f9190612360565b60405180910390f35b3480156103b3575f80fd5b506103ce60048036038101906103c9919061291c565b610c71565b005b3480156103db575f80fd5b506103e4610d07565b6040516103f19190612967565b60405180910390f35b348015610405575f80fd5b5061040e610d2c565b60405161041b9190612ab8565b60405180910390f35b34801561042f575f80fd5b50610438610db4565b6040516104459190612b03565b60405180910390f35b348015610459575f80fd5b50610462610dd8565b60405161046f9190612b3c565b60405180910390f35b348015610483575f80fd5b5061049e60048036038101906104999190612b55565b610dfc565b6040516104ab9190612360565b60405180910390f35b3480156104bf575f80fd5b506104da60048036038101906104d59190612884565b610e96565b6040516104e79190612360565b60405180910390f35b60606104fd83835f610f36565b905092915050565b6003805f015f9054906101000a900473ffffffffffffffffffffffffffffffffffffffff1690806001015f9054906101000a900473ffffffffffffffffffffffffffffffffffffffff16908060010160149054906101000a900462ffffff16908060010160179054906101000a900460020b90806002015f9054906101000a900473ffffffffffffffffffffffffffffffffffffffff16905085565b5f7f000000000000000000000000000000000000000000000000000000000000000073ffffffffffffffffffffffffffffffffffffffff163373ffffffffffffffffffffffffffffffffffffffff1614610627576040517fae18210a00000000000000000000000000000000000000000000000000000000815260040160405180910390fd5b6106348686868686611001565b905095945050505050565b5f7f000000000000000000000000000000000000000000000000000000000000000073ffffffffffffffffffffffffffffffffffffffff163373ffffffffffffffffffffffffffffffffffffffff16146106c5576040517fae18210a00000000000000000000000000000000000000000000000000000000815260040160405180910390fd5b6106d28686868686611034565b905095945050505050565b5f6106e9868585611067565b90505f6106f46110aa565b905061071d827bffffffffffffffffffffffffffffffffffffffffffffffffffffffff16611564565b610744837bffffffffffffffffffffffffffffffffffffffffffffffffffffffff1661158f565b73ffffffffffffffffffffffffffffffffffffffff16610781847bffffffffffffffffffffffffffffffffffffffffffffffffffffffff166115ba565b7ff9d7c5afd7422dacb07ecdd057d7d960f88a0e088841926e0b0e70741ed96551865f0151876020015188604001518960600151886040516107c7959493929190612ca5565b60405180910390a450505050505050565b5f805f7f000000000000000000000000000000000000000000000000000000000000000073ffffffffffffffffffffffffffffffffffffffff163373ffffffffffffffffffffffffffffffffffffffff1614610860576040517fae18210a00000000000000000000000000000000000000000000000000000000815260040160405180910390fd5b61086d8888888888611603565b925092509250955095509592505050565b5f807f000000000000000000000000000000000000000000000000000000000000000073ffffffffffffffffffffffffffffffffffffffff163373ffffffffffffffffffffffffffffffffffffffff1614610905576040517fae18210a00000000000000000000000000000000000000000000000000000000815260040160405180910390fd5b61091489898989898989611638565b9150915097509795505050505050565b5f7f000000000000000000000000000000000000000000000000000000000000000073ffffffffffffffffffffffffffffffffffffffff163373ffffffffffffffffffffffffffffffffffffffff16146109aa576040517fae18210a00000000000000000000000000000000000000000000000000000000815260040160405180910390fd5b6109b68585858561166c565b9050949350505050565b5f805f9054906101000a900473ffffffffffffffffffffffffffffffffffffffff1673ffffffffffffffffffffffffffffffffffffffff16639b6c56ec306040518263ffffffff1660e01b8152600401610a1a9190612d13565b602060405180830381865afa158015610a35573d5f803e3d5ffd5b505050506040513d601f19601f82011682018060405250810190610a599190612d40565b9050610a845f8054906101000a900473ffffffffffffffffffffffffffffffffffffffff1682611691565b50565b5f807f000000000000000000000000000000000000000000000000000000000000000073ffffffffffffffffffffffffffffffffffffffff163373ffffffffffffffffffffffffffffffffffffffff1614610b0e576040517fae18210a00000000000000000000000000000000000000000000000000000000815260040160405180910390fd5b610b1d898989898989896117d8565b9150915097509795505050505050565b5f807f000000000000000000000000000000000000000000000000000000000000000073ffffffffffffffffffffffffffffffffffffffff163373ffffffffffffffffffffffffffffffffffffffff1614610bb4576040517fae18210a00000000000000000000000000000000000000000000000000000000815260040160405180910390fd5b610bc288888888888861180c565b91509150965096945050505050565b5f7f000000000000000000000000000000000000000000000000000000000000000073ffffffffffffffffffffffffffffffffffffffff163373ffffffffffffffffffffffffffffffffffffffff1614610c57576040517fae18210a00000000000000000000000000000000000000000000000000000000815260040160405180910390fd5b610c65878787878787611840565b90509695505050505050565b60015f3373ffffffffffffffffffffffffffffffffffffffff1673ffffffffffffffffffffffffffffffffffffffff1681526020019081526020015f205f9054906101000a900460ff16610cfa576040517f08c379a0000000000000000000000000000000000000000000000000000000008152600401610cf190612dc5565b60405180910390fd5b610d043382611691565b50565b60075f9054906101000a900473ffffffffffffffffffffffffffffffffffffffff1681565b610d34611dda565b604051806101c001604052805f151581526020016001151581526020015f151581526020015f151581526020015f151581526020015f151581526020015f151581526020015f151581526020015f151581526020015f151581526020015f151581526020015f151581526020015f151581526020015f1515815250905090565b7f000000000000000000000000000000000000000000000000000000000000000081565b7f000000000000000000000000000000000000000000000000000000000000000081565b5f7f000000000000000000000000000000000000000000000000000000000000000073ffffffffffffffffffffffffffffffffffffffff163373ffffffffffffffffffffffffffffffffffffffff1614610e82576040517fae18210a00000000000000000000000000000000000000000000000000000000815260040160405180910390fd5b610e8d848484611873565b90509392505050565b5f7f000000000000000000000000000000000000000000000000000000000000000073ffffffffffffffffffffffffffffffffffffffff163373ffffffffffffffffffffffffffffffffffffffff1614610f1c576040517fae18210a00000000000000000000000000000000000000000000000000000000815260040160405180910390fd5b610f2a8787878787876118a6565b90509695505050505050565b606081471015610f7f5747826040517fcf479181000000000000000000000000000000000000000000000000000000008152600401610f76929190612de3565b60405180910390fd5b5f808573ffffffffffffffffffffffffffffffffffffffff168486604051610fa79190612e44565b5f6040518083038185875af1925050503d805f8114610fe1576040519150601f19603f3d011682016040523d82523d5f602084013e610fe6565b606091505b5091509150610ff68683836118d9565b925050509392505050565b5f6040517f0a85dc2900000000000000000000000000000000000000000000000000000000815260040160405180910390fd5b5f6040517f0a85dc2900000000000000000000000000000000000000000000000000000000815260040160405180910390fd5b5f8160108473ffffffffffffffffffffffffffffffffffffffff16901b73ffffffffffffffffffffffffffffffffffffffff1660a086901b171790509392505050565b6110b2611e57565b5f6110bb611966565b90505f6040518060a0016040528060036040518060a00160405290815f82015f9054906101000a900473ffffffffffffffffffffffffffffffffffffffff1673ffffffffffffffffffffffffffffffffffffffff1673ffffffffffffffffffffffffffffffffffffffff168152602001600182015f9054906101000a900473ffffffffffffffffffffffffffffffffffffffff1673ffffffffffffffffffffffffffffffffffffffff1673ffffffffffffffffffffffffffffffffffffffff1681526020016001820160149054906101000a900462ffffff1662ffffff1662ffffff1681526020016001820160179054906101000a900460020b60020b60020b8152602001600282015f9054906101000a900473ffffffffffffffffffffffffffffffffffffffff1673ffffffffffffffffffffffffffffffffffffffff1673ffffffffffffffffffffffffffffffffffffffff1681525050815260200160011515815260200160035f015f9054906101000a900473ffffffffffffffffffffffffffffffffffffffff1673ffffffffffffffffffffffffffffffffffffffff166370a08231306040518263ffffffff1660e01b815260040161127e9190612d13565b602060405180830381865afa158015611299573d5f803e3d5ffd5b505050506040513d601f19601f820116820180604052508101906112bd9190612d40565b6fffffffffffffffffffffffffffffffff1681526020015f6fffffffffffffffffffffffffffffffff16815260200160405180602001604052805f81525081525090506113356007826040516020016113169190612f9b565b604051602081830303815290604052846119e39092919063ffffffff16565b505f61139660035f015f9054906101000a900473ffffffffffffffffffffffffffffffffffffffff1660036001015f9054906101000a900473ffffffffffffffffffffffffffffffffffffffff16600186611c0d909392919063ffffffff16565b9050611412600c60035f015f9054906101000a900473ffffffffffffffffffffffffffffffffffffffff167fffffffffffffffffffffffffffffffffffffffffffffffffffffffffffffffff6040516020016113f3929190612fbb565b604051602081830303815290604052856119e39092919063ffffffff16565b5061146e600f60036001015f9054906101000a900473ffffffffffffffffffffffffffffffffffffffff165f60405160200161144f929190612fbb565b604051602081830303815290604052856119e39092919063ffffffff16565b505f60075f9054906101000a900473ffffffffffffffffffffffffffffffffffffffff1673ffffffffffffffffffffffffffffffffffffffff16633593564c855f015186602001516006546040516024016114cb9392919061309d565b604051602081830303815290604052915060e01b6020820180517bffffffffffffffffffffffffffffffffffffffffffffffffffffffff83818316178352505050509050604051806040016040528060075f9054906101000a900473ffffffffffffffffffffffffffffffffffffffff1673ffffffffffffffffffffffffffffffffffffffff1681526020018281525094505050505090565b5f61ffff82167bffffffffffffffffffffffffffffffffffffffffffffffffffffffff169050919050565b5f6010827bffffffffffffffffffffffffffffffffffffffffffffffffffffffff16901c9050919050565b5f60a0827bffffffffffffffffffffffffffffffffffffffffffffffffffffffff16901c7bffffffffffffffffffffffffffffffffffffffffffffffffffffffff169050919050565b5f805f6040517f0a85dc2900000000000000000000000000000000000000000000000000000000815260040160405180910390fd5b5f806040517f0a85dc2900000000000000000000000000000000000000000000000000000000815260040160405180910390fd5b5f836003818161167c919061340d565b905050636fe7e6eb60e01b9050949350505050565b804710156116d4576040517f08c379a00000000000000000000000000000000000000000000000000000000081526004016116cb90613465565b60405180910390fd5b5f8111156117d4575f8273ffffffffffffffffffffffffffffffffffffffff16825f67ffffffffffffffff81111561170f5761170e611ec5565b5b6040519080825280601f01601f1916602001820160405280156117415781602001600182028036833780820191505090505b5060405161174f9190612e44565b5f6040518083038185875af1925050503d805f8114611789576040519150601f19603f3d011682016040523d82523d5f602084013e61178e565b606091505b50509050806117d2576040517f08c379a00000000000000000000000000000000000000000000000000000000081526004016117c9906134cd565b60405180910390fd5b505b5050565b5f806040517f0a85dc2900000000000000000000000000000000000000000000000000000000815260040160405180910390fd5b5f806040517f0a85dc2900000000000000000000000000000000000000000000000000000000815260040160405180910390fd5b5f6040517f0a85dc2900000000000000000000000000000000000000000000000000000000815260040160405180910390fd5b5f6040517f0a85dc2900000000000000000000000000000000000000000000000000000000815260040160405180910390fd5b5f6040517f0a85dc2900000000000000000000000000000000000000000000000000000000815260040160405180910390fd5b6060826118ee576118e982611d65565b61195e565b5f825114801561191457505f8473ffffffffffffffffffffffffffffffffffffffff163b145b1561195657836040517f9996b31500000000000000000000000000000000000000000000000000000000815260040161194d9190612d13565b60405180910390fd5b81905061195f565b5b9392505050565b61196e611e86565b604051806040016040528060405180602001604052805f81525081526020015f67ffffffffffffffff8111156119a7576119a6611ec5565b5b6040519080825280602002602001820160405280156119da57816020015b60608152602001906001900390816119c55790505b50815250905090565b6119eb611e86565b5f60018560200151516119fe9190613518565b67ffffffffffffffff811115611a1757611a16611ec5565b5b6040519080825280601f01601f191660200182016040528015611a495781602001600182028036833780820191505090505b5090505f6001866020015151611a5f9190613518565b67ffffffffffffffff811115611a7857611a77611ec5565b5b604051908082528060200260200182016040528015611aab57816020015b6060815260200190600190039081611a965790505b5090505f5b60018251611abe919061354b565b811015611b715786602001518181518110611adc57611adb61357e565b5b6020026020010151828281518110611af757611af661357e565b5b6020026020010181905250865f01518181518110611b1857611b1761357e565b5b602001015160f81c60f81b838281518110611b3657611b3561357e565b5b60200101907effffffffffffffffffffffffffffffffffffffffffffffffffffffffffffff191690815f1a9053508080600101915050611ab0565b50838160018351611b82919061354b565b81518110611b9357611b9261357e565b5b60200260200101819052508460f81b8260018351611bb1919061354b565b81518110611bc257611bc161357e565b5b60200101907effffffffffffffffffffffffffffffffffffffffffffffffffffffffffffff191690815f1a90535081865f018190525080866020018190525085925050509392505050565b6060600173ffffffffffffffffffffffffffffffffffffffff168273ffffffffffffffffffffffffffffffffffffffff1603611cda57611c9a600c857fffffffffffffffffffffffffffffffffffffffffffffffffffffffffffffffff604051602001611c7b929190612fbb565b604051602081830303815290604052876119e39092919063ffffffff16565b9450611cd3600f845f604051602001611cb49291906135f0565b604051602081830303815290604052876119e39092919063ffffffff16565b9450611d52565b611d14600b855f6001604051602001611cf593929190613635565b604051602081830303815290604052876119e39092919063ffffffff16565b9450611d4f600e84845f604051602001611d309392919061366a565b604051602081830303815290604052876119e39092919063ffffffff16565b94505b611d5b85611da8565b9050949350505050565b5f81511115611d7657805160208201fd5b6040517fd6bda27500000000000000000000000000000000000000000000000000000000815260040160405180910390fd5b6060815f01518260200151604051602001611dc492919061369f565b6040516020818303038152906040529050919050565b604051806101c001604052805f151581526020015f151581526020015f151581526020015f151581526020015f151581526020015f151581526020015f151581526020015f151581526020015f151581526020015f151581526020015f151581526020015f151581526020015f151581526020015f151581525090565b60405180604001604052805f73ffffffffffffffffffffffffffffffffffffffff168152602001606081525090565b604051806040016040528060608152602001606081525090565b5f604051905090565b5f80fd5b5f80fd5b5f80fd5b5f601f19601f8301169050919050565b7f4e487b71000000000000000000000000000000000000000000000000000000005f52604160045260245ffd5b611efb82611eb5565b810181811067ffffffffffffffff82111715611f1a57611f19611ec5565b5b80604052505050565b5f611f2c611ea0565b9050611f388282611ef2565b919050565b5f80fd5b5f73ffffffffffffffffffffffffffffffffffffffff82169050919050565b5f611f6a82611f41565b9050919050565b611f7a81611f60565b8114611f84575f80fd5b50565b5f81359050611f9581611f71565b92915050565b5f80fd5b5f80fd5b5f67ffffffffffffffff821115611fbd57611fbc611ec5565b5b611fc682611eb5565b9050602081019050919050565b828183375f83830152505050565b5f611ff3611fee84611fa3565b611f23565b90508281526020810184848401111561200f5761200e611f9f565b5b61201a848285611fd3565b509392505050565b5f82601f83011261203657612035611f9b565b5b8135612046848260208601611fe1565b91505092915050565b5f6040828403121561206457612063611eb1565b5b61206e6040611f23565b90505f61207d84828501611f87565b5f83015250602082013567ffffffffffffffff8111156120a05761209f611f3d565b5b6120ac84828501612022565b60208301525092915050565b5f602082840312156120cd576120cc611ea9565b5b5f82013567ffffffffffffffff8111156120ea576120e9611ead565b5b6120f68482850161204f565b91505092915050565b5f819050919050565b5f61212261211d61211884611f41565b6120ff565b611f41565b9050919050565b5f61213382612108565b9050919050565b5f61214482612129565b9050919050565b6121548161213a565b82525050565b5f62ffffff82169050919050565b6121718161215a565b82525050565b5f8160020b9050919050565b61218c81612177565b82525050565b5f61219c82612129565b9050919050565b6121ac81612192565b82525050565b5f60a0820190506121c55f83018861214b565b6121d2602083018761214b565b6121df6040830186612168565b6121ec6060830185612183565b6121f960808301846121a3565b9695505050505050565b5f80fd5b5f60a0828403121561221c5761221b612203565b5b81905092915050565b5f6080828403121561223a57612239612203565b5b81905092915050565b5f80fd5b5f80fd5b5f8083601f8401126122605761225f611f9b565b5b8235905067ffffffffffffffff81111561227d5761227c612243565b5b60208301915083600182028301111561229957612298612247565b5b9250929050565b5f805f805f61016086880312156122ba576122b9611ea9565b5b5f6122c788828901611f87565b95505060206122d888828901612207565b94505060c06122e988828901612225565b93505061014086013567ffffffffffffffff81111561230b5761230a611ead565b5b6123178882890161224b565b92509250509295509295909350565b5f7fffffffff0000000000000000000000000000000000000000000000000000000082169050919050565b61235a81612326565b82525050565b5f6020820190506123735f830184612351565b92915050565b5f819050919050565b61238b81612379565b8114612395575f80fd5b50565b5f813590506123a681612382565b92915050565b5f608082840312156123c1576123c0611eb1565b5b6123cb6080611f23565b90505f6123da84828501612398565b5f8301525060206123ed84828501612398565b602083015250604061240184828501612398565b604083015250606082013567ffffffffffffffff81111561242557612424611f3d565b5b61243184828501612022565b60608301525092915050565b5f805f805f60a0868803121561245657612455611ea9565b5b5f61246388828901612398565b955050602061247488828901611f87565b945050604061248588828901611f87565b935050606061249688828901612398565b925050608086013567ffffffffffffffff8111156124b7576124b6611ead565b5b6124c3888289016123ac565b9150509295509295909350565b5f606082840312156124e5576124e4612203565b5b81905092915050565b5f805f805f610140868803121561250857612507611ea9565b5b5f61251588828901611f87565b955050602061252688828901612207565b94505060c0612537888289016124d0565b93505061012086013567ffffffffffffffff81111561255957612558611ead565b5b6125658882890161224b565b92509250509295509295909350565b5f819050919050565b5f61259761259261258d84612574565b6120ff565b612574565b9050919050565b6125a78161257d565b82525050565b5f6060820190506125c05f830186612351565b6125cd602083018561259e565b6125da6040830184612168565b949350505050565b6125eb81612574565b81146125f5575f80fd5b50565b5f81359050612606816125e2565b92915050565b5f805f805f805f6101a0888a03121561262857612627611ea9565b5b5f6126358a828b01611f87565b97505060206126468a828b01612207565b96505060c06126578a828b01612225565b9550506101406126698a828b016125f8565b94505061016061267b8a828b016125f8565b93505061018088013567ffffffffffffffff81111561269d5761269c611ead565b5b6126a98a828b0161224b565b925092505092959891949750929550565b6126c38161257d565b82525050565b5f6040820190506126dc5f830185612351565b6126e960208301846126ba565b9392505050565b6126f981611f41565b8114612703575f80fd5b50565b5f81359050612714816126f0565b92915050565b61272381612177565b811461272d575f80fd5b50565b5f8135905061273e8161271a565b92915050565b5f805f80610100858703121561275d5761275c611ea9565b5b5f61276a87828801611f87565b945050602061277b87828801612207565b93505060c061278c87828801612706565b92505060e061279d87828801612730565b91505092959194509250565b5f805f805f8061016087890312156127c4576127c3611ea9565b5b5f6127d189828a01611f87565b96505060206127e289828a01612207565b95505060c06127f389828a016124d0565b94505061012061280589828a016125f8565b93505061014087013567ffffffffffffffff81111561282757612826611ead565b5b61283389828a0161224b565b92509250509295509295509295565b5f81600f0b9050919050565b61285781612842565b82525050565b5f6040820190506128705f830185612351565b61287d602083018461284e565b9392505050565b5f805f805f80610120878903121561289f5761289e611ea9565b5b5f6128ac89828a01611f87565b96505060206128bd89828a01612207565b95505060c06128ce89828a01612398565b94505060e06128df89828a01612398565b93505061010087013567ffffffffffffffff81111561290157612900611ead565b5b61290d89828a0161224b565b92509250509295509295509295565b5f6020828403121561293157612930611ea9565b5b5f61293e84828501612398565b91505092915050565b5f61295182612129565b9050919050565b61296181612947565b82525050565b5f60208201905061297a5f830184612958565b92915050565b5f8115159050919050565b61299481612980565b82525050565b6101c082015f8201516129af5f85018261298b565b5060208201516129c2602085018261298b565b5060408201516129d5604085018261298b565b5060608201516129e8606085018261298b565b5060808201516129fb608085018261298b565b5060a0820151612a0e60a085018261298b565b5060c0820151612a2160c085018261298b565b5060e0820151612a3460e085018261298b565b50610100820151612a4961010085018261298b565b50610120820151612a5e61012085018261298b565b50610140820151612a7361014085018261298b565b50610160820151612a8861016085018261298b565b50610180820151612a9d61018085018261298b565b506101a0820151612ab26101a085018261298b565b50505050565b5f6101c082019050612acc5f83018461299a565b92915050565b5f612adc82612108565b9050919050565b5f612aed82612ad2565b9050919050565b612afd81612ae3565b82525050565b5f602082019050612b165f830184612af4565b92915050565b5f612b2682612129565b9050919050565b612b3681612b1c565b82525050565b5f602082019050612b4f5f830184612b2d565b92915050565b5f805f60e08486031215612b6c57612b6b611ea9565b5b5f612b7986828701611f87565b9350506020612b8a86828701612207565b92505060c0612b9b86828701612706565b9150509250925092565b612bae81612379565b82525050565b5f81519050919050565b5f82825260208201905092915050565b8281835e5f83830152505050565b5f612be682612bb4565b612bf08185612bbe565b9350612c00818560208601612bce565b612c0981611eb5565b840191505092915050565b612c1d81611f60565b82525050565b5f82825260208201905092915050565b5f612c3d82612bb4565b612c478185612c23565b9350612c57818560208601612bce565b612c6081611eb5565b840191505092915050565b5f604083015f830151612c805f860182612c14565b5060208301518482036020860152612c988282612c33565b9150508091505092915050565b5f60a082019050612cb85f830188612ba5565b612cc56020830187612ba5565b612cd26040830186612ba5565b8181036060830152612ce48185612bdc565b90508181036080830152612cf88184612c6b565b90509695505050505050565b612d0d81611f60565b82525050565b5f602082019050612d265f830184612d04565b92915050565b5f81519050612d3a81612382565b92915050565b5f60208284031215612d5557612d54611ea9565b5b5f612d6284828501612d2c565b91505092915050565b5f82825260208201905092915050565b7f417574686f72697a65642073656e646572206f6e6c79000000000000000000005f82015250565b5f612daf601683612d6b565b9150612dba82612d7b565b602082019050919050565b5f6020820190508181035f830152612ddc81612da3565b9050919050565b5f604082019050612df65f830185612ba5565b612e036020830184612ba5565b9392505050565b5f81905092915050565b5f612e1e82612bb4565b612e288185612e0a565b9350612e38818560208601612bce565b80840191505092915050565b5f612e4f8284612e14565b915081905092915050565b612e638161213a565b82525050565b612e728161215a565b82525050565b612e8181612177565b82525050565b612e9081612192565b82525050565b60a082015f820151612eaa5f850182612e5a565b506020820151612ebd6020850182612e5a565b506040820151612ed06040850182612e69565b506060820151612ee36060850182612e78565b506080820151612ef66080850182612e87565b50505050565b5f6fffffffffffffffffffffffffffffffff82169050919050565b612f2081612efc565b82525050565b5f61012083015f830151612f3c5f860182612e96565b506020830151612f4f60a086018261298b565b506040830151612f6260c0860182612f17565b506060830151612f7560e0860182612f17565b506080830151848203610100860152612f8e8282612c33565b9150508091505092915050565b5f6020820190508181035f830152612fb38184612f26565b905092915050565b5f604082019050612fce5f83018561214b565b612fdb6020830184612ba5565b9392505050565b5f81519050919050565b5f82825260208201905092915050565b5f819050602082019050919050565b5f6130168383612c33565b905092915050565b5f602082019050919050565b5f61303482612fe2565b61303e8185612fec565b93508360208202850161305085612ffc565b805f5b8581101561308b578484038952815161306c858261300b565b94506130778361301e565b925060208a01995050600181019050613053565b50829750879550505050505092915050565b5f6060820190508181035f8301526130b58186612bdc565b905081810360208301526130c9818561302a565b90506130d86040830184612ba5565b949350505050565b6130e981611f60565b81146130f3575f80fd5b50565b5f8135613102816130e0565b80915050919050565b5f815f1b9050919050565b5f73ffffffffffffffffffffffffffffffffffffffff6131358461310b565b9350801983169250808416831791505092915050565b5f819050919050565b61315d8261213a565b6131706131698261314b565b8354613116565b8255505050565b6131808161215a565b811461318a575f80fd5b50565b5f813561319981613177565b80915050919050565b5f8160a01b9050919050565b5f76ffffff00000000000000000000000000000000000000006131d0846131a2565b9350801983169250808416831791505092915050565b5f6132006131fb6131f68461215a565b6120ff565b61215a565b9050919050565b5f819050919050565b613219826131e6565b61322c61322582613207565b83546131ae565b8255505050565b5f813561323f8161271a565b80915050919050565b5f8160b81b9050919050565b5f79ffffff000000000000000000000000000000000000000000000061327984613248565b9350801983169250808416831791505092915050565b5f6132a96132a461329f84612177565b6120ff565b612177565b9050919050565b5f819050919050565b6132c28261328f565b6132d56132ce826132b0565b8354613254565b8255505050565b5f6132e682611f60565b9050919050565b6132f6816132dc565b8114613300575f80fd5b50565b5f813561330f816132ed565b80915050919050565b5f61332282612108565b9050919050565b5f61333382613318565b9050919050565b5f819050919050565b61334c82613329565b61335f6133588261333a565b8354613116565b8255505050565b5f81015f830180613376816130f6565b90506133828184613154565b505050600181016020830180613397816130f6565b90506133a38184613154565b5050506001810160408301806133b88161318d565b90506133c48184613210565b5050506001810160608301806133d981613233565b90506133e581846132b9565b5050506002810160808301806133fa81613303565b90506134068184613343565b5050505050565b6134178282613366565b5050565b7f496e73756666696369656e742066756e647300000000000000000000000000005f82015250565b5f61344f601283612d6b565b915061345a8261341b565b602082019050919050565b5f6020820190508181035f83015261347c81613443565b9050919050565b7f5472616e73666572206661696c656400000000000000000000000000000000005f82015250565b5f6134b7600f83612d6b565b91506134c282613483565b602082019050919050565b5f6020820190508181035f8301526134e4816134ab565b9050919050565b7f4e487b71000000000000000000000000000000000000000000000000000000005f52601160045260245ffd5b5f61352282612379565b915061352d83612379565b9250828201905080821115613545576135446134eb565b5b92915050565b5f61355582612379565b915061356083612379565b9250828203905081811115613578576135776134eb565b5b92915050565b7f4e487b71000000000000000000000000000000000000000000000000000000005f52603260045260245ffd5b5f819050919050565b5f60ff82169050919050565b5f6135da6135d56135d0846135ab565b6120ff565b6135b4565b9050919050565b6135ea816135c0565b82525050565b5f6040820190506136035f83018561214b565b61361060208301846135e1565b9392505050565b61362081612efc565b82525050565b61362f81612980565b82525050565b5f6060820190506136485f83018661214b565b6136556020830185613617565b6136626040830184613626565b949350505050565b5f60608201905061367d5f83018661214b565b61368a6020830185612d04565b6136976040830184613617565b949350505050565b5f6040820190508181035f8301526136b78185612bdc565b905081810360208301526136cb818461302a565b9050939250505056fea26469706673582212206fedce5425965e6dac01d1fc6eddab322bfd31a1de916e39575840fb46c17fce64736f6c634300081a0033","linkReferences":{}},"methodIdentifiers":{"REACTIVE_PLUGIN_FACTORY()":"ccd8e928","afterAddLiquidity(address,(address,address,uint24,int24,address),(int24,int24,int256,bytes32),int256,int256,bytes)":"9f063efc","afterDonate(address,(address,address,uint24,int24,address),uint256,uint256,bytes)":"e1b4af69","afterInitialize(address,(address,address,uint24,int24,address),uint160,int24)":"6fe7e6eb","afterRemoveLiquidity(address,(address,address,uint24,int24,address),(int24,int24,int256,bytes32),int256,int256,bytes)":"6c2bbe7e","afterSwap(address,(address,address,uint24,int24,address),(bool,int256,uint160),int256,bytes)":"b47b2fb1","beforeAddLiquidity(address,(address,address,uint24,int24,address),(int24,int24,int256,bytes32),bytes)":"259982e5","beforeDonate(address,(address,address,uint24,int24,address),uint256,uint256,bytes)":"b6a8b0fa","beforeInitialize(address,(address,address,uint24,int24,address),uint160)":"dc98354e","beforeRemoveLiquidity(address,(address,address,uint24,int24,address),(int24,int24,int256,bytes32),bytes)":"21d0ee70","beforeSwap(address,(address,address,uint24,int24,address),(bool,int256,uint160),bytes)":"575e24b4","coverDebt()":"7a90b990","deployReactivePlugin(uint256,address,address,uint256,(uint256,uint256,uint256,bytes))":"40d168f9","getHookPermissions()":"c4e833ce","pay(uint256)":"c290d691","poolKey()":"182148ef","poolManager()":"dc4c90d3","swapRouter()":"c31c9c07"},"id":105}