{"abi":[{"type":"constructor","inputs":[{"name":"_poolManager","type":"address","internalType":"contract IPoolManager"}],"stateMutability":"nonpayable"},{"type":"receive","stateMutability":"payable"},{"type":"function","name":"executeActions","inputs":[{"name":"params","type":"bytes","internalType":"bytes"}],"outputs":[],"stateMutability":"payable"},{"type":"function","name":"executeActionsAndSweepExcessETH","inputs":[{"name":"params","type":"bytes","internalType":"bytes"}],"outputs":[],"stateMutability":"payable"},{"type":"function","name":"msgSender","inputs":[],"outputs":[{"name":"","type":"address","internalType":"address"}],"stateMutability":"view"},{"type":"function","name":"poolManager","inputs":[],"outputs":[{"name":"","type":"address","internalType":"contract IPoolManager"}],"stateMutability":"view"},{"type":"function","name":"unlockCallback","inputs":[{"name":"data","type":"bytes","internalType":"bytes"}],"outputs":[{"name":"","type":"bytes","internalType":"bytes"}],"stateMutability":"nonpayable"},{"type":"error","name":"ContractLocked","inputs":[]},{"type":"error","name":"DeltaNotNegative","inputs":[{"name":"currency","type":"address","internalType":"Currency"}]},{"type":"error","name":"DeltaNotPositive","inputs":[{"name":"currency","type":"address","internalType":"Currency"}]},{"type":"error","name":"InputLengthMismatch","inputs":[]},{"type":"error","name":"InsufficientBalance","inputs":[]},{"type":"error","name":"InvalidBips","inputs":[]},{"type":"error","name":"NotPoolManager","inputs":[]},{"type":"error","name":"UnsupportedAction","inputs":[{"name":"action","type":"uint256","internalType":"uint256"}]},{"type":"error","name":"V4TooLittleReceived","inputs":[{"name":"minAmountOutReceived","type":"uint256","internalType":"uint256"},{"name":"amountReceived","type":"uint256","internalType":"uint256"}]},{"type":"error","name":"V4TooMuchRequested","inputs":[{"name":"maxAmountInRequested","type":"uint256","internalType":"uint256"},{"name":"amountRequested","type":"uint256","internalType":"uint256"}]}],"bytecode":{"object":"0x60a060405234801561000f575f80fd5b50604051612e5a380380612e5a833981810160405281019061003191906100e2565b808080808073ffffffffffffffffffffffffffffffffffffffff1660808173ffffffffffffffffffffffffffffffffffffffff1681525050505050505061010d565b5f80fd5b5f73ffffffffffffffffffffffffffffffffffffffff82169050919050565b5f6100a082610077565b9050919050565b5f6100b182610096565b9050919050565b6100c1816100a7565b81146100cb575f80fd5b50565b5f815190506100dc816100b8565b92915050565b5f602082840312156100f7576100f6610073565b5b5f610104848285016100ce565b91505092915050565b608051612ce86101725f395f81816101b0015281816103180152818161038a015281816110840152818161112b015281816111d50152818161127601528181611313015281816113b1015281816117ac01528181611a4b0152611a9c0152612ce85ff3fe60806040526004361061004d575f3560e01c80634f84885b1461005857806391dd734614610074578063a1bfb5ff146100b0578063d737d0c7146100cc578063dc4c90d3146100f657610054565b3661005457005b5f80fd5b610072600480360381019061006d9190611f7c565b610120565b005b34801561007f575f80fd5b5061009a60048036038101906100959190611f7c565b6101ac565b6040516100a79190612037565b60405180910390f35b6100ca60048036038101906100c59190611f7c565b610245565b005b3480156100d7575f80fd5b506100e0610308565b6040516100ed9190612096565b60405180910390f35b348015610101575f80fd5b5061010a610316565b604051610117919061210a565b60405180910390f35b5f73ffffffffffffffffffffffffffffffffffffffff1661013f61033a565b73ffffffffffffffffffffffffffffffffffffffff161461018c576040517f6f5ffb7e00000000000000000000000000000000000000000000000000000000815260040160405180910390fd5b61019533610362565b61019f8282610388565b6101a85f610362565b5050565b60607f000000000000000000000000000000000000000000000000000000000000000073ffffffffffffffffffffffffffffffffffffffff163373ffffffffffffffffffffffffffffffffffffffff1614610233576040517fae18210a00000000000000000000000000000000000000000000000000000000815260040160405180910390fd5b61023d838361042b565b905092915050565b5f73ffffffffffffffffffffffffffffffffffffffff1661026461033a565b73ffffffffffffffffffffffffffffffffffffffff16146102b1576040517f6f5ffb7e00000000000000000000000000000000000000000000000000000000815260040160405180910390fd5b6102ba33610362565b6102c48282610388565b5f4790505f8111156102fa576102f9813373ffffffffffffffffffffffffffffffffffffffff1661046a90919063ffffffff16565b5b506103045f610362565b5050565b5f6103116104ba565b905090565b7f000000000000000000000000000000000000000000000000000000000000000081565b5f7f0aedd6bde10e3aa2adec092b02a3e3e805795516cda41f27aa145b8f300af87a5c905090565b807f0aedd6bde10e3aa2adec092b02a3e3e805795516cda41f27aa145b8f300af87a5d50565b7f000000000000000000000000000000000000000000000000000000000000000073ffffffffffffffffffffffffffffffffffffffff166348c8949183836040518363ffffffff1660e01b81526004016103e392919061215d565b5f604051808303815f875af11580156103fe573d5f803e3d5ffd5b505050506040513d5f823e3d601f19601f820116820180604052508101906104269190612299565b505050565b6060365f365f61043b87876104c8565b935093509350935061044f84848484610577565b60405180602001604052805f81525094505050505092915050565b5f805f805f85875af19050806104b5576040517f08c379a00000000000000000000000000000000000000000000000000000000081526004016104ac9061233a565b60405180910390fd5b505050565b5f6104c361033a565b905090565b365f365f604086351860608701945063ffffffff6040880135169350606063ffffffe0601f86011601806020890135188217915080880163ffffffff81351693506020810194508360051b805f5b8281101561054d578088013582811887179650808901602063ffffffe0601f83350116018085019450505050602081019050610516565b508087018b8b011085171561056957633b99b53d5f526004601cfd5b505050505092959194509250565b5f8484905090508282905081146105ba576040517faaad13f700000000000000000000000000000000000000000000000000000000815260040160405180910390fd5b5f5b81811015610626575f8686838181106105d8576105d7612358565b5b9050013560f81c60f81b60f81c60ff1690506106188186868581811061060157610600612358565b5b90506020028101906106139190612391565b61062e565b5080806001019150506105bc565b505050505050565b600b8310156106cc576007830361065b573661064a83836108e7565b90506106558161090a565b506108e2565b6006830361067f573661066e8383610add565b905061067981610b01565b506108e2565b600983036106a357366106928383610c98565b905061069d81610cbb565b506108e2565b600883036106c757366106b68383610e96565b90506106c181610eba565b506108e2565b6108a5565b600c8303610751575f806106e08484611051565b915091505f6106ee8361107b565b9050818111156107375781816040517f12bacdd300000000000000000000000000000000000000000000000000000000815260040161072e92919061240b565b60405180910390fd5b61074983610743610308565b83611121565b5050506108e2565b600f83036107d6575f806107658484611051565b915091505f6107738361130a565b9050818110156107bc5781816040517f8b063d730000000000000000000000000000000000000000000000000000000081526004016107b392919061240b565b60405180910390fd5b6107ce836107c8610308565b836113a7565b5050506108e2565b600b8303610815575f805f6107eb858561143f565b92509250925061080d836107fe83611471565b610808858761148d565b611121565b5050506108e2565b600e8303610854575f805f61082a858561150e565b92509250925061084c8361083d84611540565b61084784876115c9565b6113a7565b5050506108e2565b601083036108a4575f805f610869858561150e565b92509250925061089c8361087c84611540565b610897846108898861130a565b6115fd90919063ffffffff16565b6113a7565b5050506108e2565b5b826040517f5cda29d70000000000000000000000000000000000000000000000000000000081526004016108d99190612432565b60405180910390fd5b505050565b3660a08210156108fe57633b99b53d5f526004601cfd5b82358301905092915050565b5f81806020019061091b919061244b565b905090505f80835f01602081019061093391906124d7565b90505f8460400160208101906109499190612547565b90505f6fffffffffffffffffffffffffffffffff16816fffffffffffffffffffffffffffffffff160361098a576109876109828361130a565b61165b565b90505b365f5b85811015610a45578680602001906109a5919061244b565b828181106109b6576109b5612358565b5b90506020028101906109c89190612572565b91505f806109df86856116ad90919063ffffffff16565b91509150610a1d610a158383886fffffffffffffffffffffffffffffffff165f03888060800190610a109190612391565b6117a8565b600f0b6118d9565b9650869450835f016020810190610a3491906124d7565b95505050808060010191505061098d565b50856060016020810190610a599190612547565b6fffffffffffffffffffffffffffffffff16846fffffffffffffffffffffffffffffffff161015610ad557856060016020810190610a979190612547565b846040517f8b063d73000000000000000000000000000000000000000000000000000000008152600401610acc9291906125c9565b60405180910390fd5b505050505050565b36610140821015610af557633b99b53d5f526004601cfd5b82358301905092915050565b5f8160c0016020810190610b159190612547565b90505f6fffffffffffffffffffffffffffffffff16816fffffffffffffffffffffffffffffffff1603610b9b57610b98610b938360a0016020810190610b5b9190612625565b610b7957835f016020016020810190610b7491906124d7565b610b8e565b835f015f016020810190610b8d91906124d7565b5b61130a565b61165b565b90505b5f610c02610bfa845f01803603810190610bb59190612786565b8560a0016020810190610bc89190612625565b856fffffffffffffffffffffffffffffffff16610be4906127e7565b87806101000190610bf59190612391565b6117a8565b600f0b6118d9565b90508260e0016020810190610c179190612547565b6fffffffffffffffffffffffffffffffff16816fffffffffffffffffffffffffffffffff161015610c93578260e0016020810190610c559190612547565b816040517f8b063d73000000000000000000000000000000000000000000000000000000008152600401610c8a9291906125c9565b60405180910390fd5b505050565b3660a0821015610caf57633b99b53d5f526004601cfd5b82358301905092915050565b5f818060200190610ccc919061244b565b905090505f80836040016020810190610ce59190612547565b90505f845f016020810190610cfa91906124d7565b9050365f6fffffffffffffffffffffffffffffffff16836fffffffffffffffffffffffffffffffff1603610d3c57610d39610d348361107b565b61165b565b92505b5f8590505b5f811115610dfe57868060200190610d59919061244b565b60018303818110610d6d57610d6c612358565b5b9050602002810190610d7f9190612572565b91505f80610d9685856116ad90919063ffffffff16565b91509150610dd5610dcb838315896fffffffffffffffffffffffffffffffff16888060800190610dc69190612391565b6117a8565b600f0b5f0361165b565b9650869550835f016020810190610dec91906124d7565b94505050808060019003915050610d41565b50856060016020810190610e129190612547565b6fffffffffffffffffffffffffffffffff16846fffffffffffffffffffffffffffffffff161115610e8e57856060016020810190610e509190612547565b846040517f12bacdd3000000000000000000000000000000000000000000000000000000008152600401610e859291906125c9565b60405180910390fd5b505050505050565b36610140821015610eae57633b99b53d5f526004601cfd5b82358301905092915050565b5f8160c0016020810190610ece9190612547565b90505f6fffffffffffffffffffffffffffffffff16816fffffffffffffffffffffffffffffffff1603610f5457610f51610f4c8360a0016020810190610f149190612625565b610f3157835f015f016020810190610f2c91906124d7565b610f47565b835f016020016020810190610f4691906124d7565b5b61107b565b61165b565b90505b5f610fbb610faa845f01803603810190610f6e9190612786565b8560a0016020810190610f819190612625565b856fffffffffffffffffffffffffffffffff1687806101000190610fa59190612391565b6117a8565b600f0b610fb6906127e7565b61165b565b90508260e0016020810190610fd09190612547565b6fffffffffffffffffffffffffffffffff16816fffffffffffffffffffffffffffffffff16111561104c578260e001602081019061100e9190612547565b816040517f12bacdd30000000000000000000000000000000000000000000000000000000081526004016110439291906125c9565b60405180910390fd5b505050565b5f80604083101561106957633b99b53d5f526004601cfd5b83359150602084013590509250929050565b5f806110c830847f000000000000000000000000000000000000000000000000000000000000000073ffffffffffffffffffffffffffffffffffffffff1661191d9092919063ffffffff16565b90505f81131561110f57826040517f3351b260000000000000000000000000000000000000000000000000000000008152600401611106919061284d565b60405180910390fd5b80611119906127e7565b915050919050565b5f810315611305577f000000000000000000000000000000000000000000000000000000000000000073ffffffffffffffffffffffffffffffffffffffff1663a5841194846040518263ffffffff1660e01b8152600401611182919061284d565b5f604051808303815f87803b158015611199575f80fd5b505af11580156111ab573d5f803e3d5ffd5b505050506111ce8373ffffffffffffffffffffffffffffffffffffffff166119dc565b15611269577f000000000000000000000000000000000000000000000000000000000000000073ffffffffffffffffffffffffffffffffffffffff166311da60b4826040518263ffffffff1660e01b815260040160206040518083038185885af115801561123e573d5f803e3d5ffd5b50505050506040513d601f19601f820116820180604052508101906112639190612890565b50611304565b611274838383611a13565b7f000000000000000000000000000000000000000000000000000000000000000073ffffffffffffffffffffffffffffffffffffffff166311da60b46040518163ffffffff1660e01b81526004016020604051808303815f875af11580156112de573d5f803e3d5ffd5b505050506040513d601f19601f820116820180604052508101906113029190612890565b505b5b505050565b5f8061135730847f000000000000000000000000000000000000000000000000000000000000000073ffffffffffffffffffffffffffffffffffffffff1661191d9092919063ffffffff16565b90505f81121561139e57826040517f4c085bf1000000000000000000000000000000000000000000000000000000008152600401611395919061284d565b60405180910390fd5b80915050919050565b5f81031561143a577f000000000000000000000000000000000000000000000000000000000000000073ffffffffffffffffffffffffffffffffffffffff16630b0d9c098484846040518463ffffffff1660e01b815260040161140c939291906128bb565b5f604051808303815f87803b158015611423575f80fd5b505af1158015611435573d5f803e3d5ffd5b505050505b505050565b5f805f606084101561145857633b99b53d5f526004601cfd5b8435925060208501359150604085013590509250925092565b5f8161147d5730611486565b611485610308565b5b9050919050565b5f7f800000000000000000000000000000000000000000000000000000000000000083036114db576114d48273ffffffffffffffffffffffffffffffffffffffff16611ae9565b9050611508565b5f6fffffffffffffffffffffffffffffffff168303611504576114fd8261107b565b9050611508565b8290505b92915050565b5f805f606084101561152757633b99b53d5f526004601cfd5b8435925060208501359150604085013590509250925092565b5f600173ffffffffffffffffffffffffffffffffffffffff168273ffffffffffffffffffffffffffffffffffffffff16036115845761157d610308565b90506115c4565b600273ffffffffffffffffffffffffffffffffffffffff168273ffffffffffffffffffffffffffffffffffffffff16036115c0573090506115c4565b8190505b919050565b5f806fffffffffffffffffffffffffffffffff1683036115f3576115ec8261130a565b90506115f7565b8290505b92915050565b5f61271082111561163a576040517fdeaa01e600000000000000000000000000000000000000000000000000000000815260040160405180910390fd5b612710828461164991906128f0565b611653919061295e565b905092915050565b5f819050806fffffffffffffffffffffffffffffffff1682146116a8576116a76393dafdf160e01b7bffffffffffffffffffffffffffffffffffffffffffffffffffffffff1916611b96565b5b919050565b6116b5611e96565b5f80845f0160208101906116c991906124d7565b90505f806116d78684611b9e565b6116e25782866116e5565b85835b915091506116f38683611bd6565b93506040518060a001604052808373ffffffffffffffffffffffffffffffffffffffff1681526020018273ffffffffffffffffffffffffffffffffffffffff16815260200188602001602081019061174b919061298e565b62ffffff16815260200188604001602081019061176891906129b9565b60020b815260200188606001602081019061178391906129e4565b73ffffffffffffffffffffffffffffffffffffffff1681525094505050509250929050565b5f807f000000000000000000000000000000000000000000000000000000000000000073ffffffffffffffffffffffffffffffffffffffff1663f3cd914c8860405180606001604052808a151581526020018981526020018a61182257600173fffd8963efd1fc6a506488495d951d5263988d260361182c565b60016401000276a3015b73ffffffffffffffffffffffffffffffffffffffff1681525087876040518563ffffffff1660e01b81526004016118669493929190612b2f565b6020604051808303815f875af1158015611882573d5f803e3d5ffd5b505050506040513d601f19601f820116820180604052508101906118a69190612b99565b90505f85121515861515146118c3576118be81611c0e565b6118cd565b6118cc81611c1a565b5b91505095945050505050565b5f8082600f0b1215611915576119146393dafdf160e01b7bffffffffffffffffffffffffffffffffffffffffffffffffffffffff1916611b96565b5b819050919050565b5f8073ffffffffffffffffffffffffffffffffffffffff84165f5273ffffffffffffffffffffffffffffffffffffffff831660205260405f2090508473ffffffffffffffffffffffffffffffffffffffff1663f135baaa826040518263ffffffff1660e01b81526004016119919190612bdc565b602060405180830381865afa1580156119ac573d5f803e3d5ffd5b505050506040513d601f19601f820116820180604052508101906119d09190612c1f565b5f1c9150509392505050565b5f8073ffffffffffffffffffffffffffffffffffffffff168273ffffffffffffffffffffffffffffffffffffffff16149050919050565b3073ffffffffffffffffffffffffffffffffffffffff168273ffffffffffffffffffffffffffffffffffffffff1603611a9657611a917f0000000000000000000000000000000000000000000000000000000000000000828573ffffffffffffffffffffffffffffffffffffffff16611c269092919063ffffffff16565b611ae4565b611ae3827f0000000000000000000000000000000000000000000000000000000000000000838673ffffffffffffffffffffffffffffffffffffffff16611d0d909392919063ffffffff16565b5b505050565b5f611b098273ffffffffffffffffffffffffffffffffffffffff166119dc565b15611b1657479050611b91565b8173ffffffffffffffffffffffffffffffffffffffff166370a08231306040518263ffffffff1660e01b8152600401611b4f9190612096565b602060405180830381865afa158015611b6a573d5f803e3d5ffd5b505050506040513d601f19601f82011682018060405250810190611b8e9190612890565b90505b919050565b805f5260045ffd5b5f8173ffffffffffffffffffffffffffffffffffffffff168373ffffffffffffffffffffffffffffffffffffffff1610905092915050565b5f8173ffffffffffffffffffffffffffffffffffffffff168373ffffffffffffffffffffffffffffffffffffffff1614905092915050565b5f8160801d9050919050565b5f81600f0b9050919050565b5f611c468473ffffffffffffffffffffffffffffffffffffffff166119dc565b15611c75575f805f8085875af1905080611c7057611c6f835f60e01b63f4b3b1bc60e01b611de1565b5b611d07565b6040517fa9059cbb00000000000000000000000000000000000000000000000000000000815273ffffffffffffffffffffffffffffffffffffffff8416600482015282602482015260205f6044835f895af13d15601f3d1160015f511416171691505f81525f60208201525f60408201525080611d0657611d058463a9059cbb60e01b63f27f64e460e01b611de1565b5b5b50505050565b5f6040517f23b872dd00000000000000000000000000000000000000000000000000000000815273ffffffffffffffffffffffffffffffffffffffff8516600482015273ffffffffffffffffffffffffffffffffffffffff8416602482015282604482015260205f6064835f8a5af1915081601f3d1160015f511416151615611d99573d863b15171591505b5080611dda576040517f08c379a0000000000000000000000000000000000000000000000000000000008152600401611dd190612c94565b60405180910390fd5b5050505050565b5f6390bfb86560e01b9050602080601f3d01040260405182815273ffffffffffffffffffffffffffffffffffffffff861660048201527fffffffff0000000000000000000000000000000000000000000000000000000085166024820152608060448201528160a00160648201523d60848201523d5f60a483013e60048260a4018201527fffffffff0000000000000000000000000000000000000000000000000000000084168260c4018201528160e40181fd5b6040518060a001604052805f73ffffffffffffffffffffffffffffffffffffffff1681526020015f73ffffffffffffffffffffffffffffffffffffffff1681526020015f62ffffff1681526020015f60020b81526020015f73ffffffffffffffffffffffffffffffffffffffff1681525090565b5f604051905090565b5f80fd5b5f80fd5b5f80fd5b5f80fd5b5f80fd5b5f8083601f840112611f3c57611f3b611f1b565b5b8235905067ffffffffffffffff811115611f5957611f58611f1f565b5b602083019150836001820283011115611f7557611f74611f23565b5b9250929050565b5f8060208385031215611f9257611f91611f13565b5b5f83013567ffffffffffffffff811115611faf57611fae611f17565b5b611fbb85828601611f27565b92509250509250929050565b5f81519050919050565b5f82825260208201905092915050565b8281835e5f83830152505050565b5f601f19601f8301169050919050565b5f61200982611fc7565b6120138185611fd1565b9350612023818560208601611fe1565b61202c81611fef565b840191505092915050565b5f6020820190508181035f83015261204f8184611fff565b905092915050565b5f73ffffffffffffffffffffffffffffffffffffffff82169050919050565b5f61208082612057565b9050919050565b61209081612076565b82525050565b5f6020820190506120a95f830184612087565b92915050565b5f819050919050565b5f6120d26120cd6120c884612057565b6120af565b612057565b9050919050565b5f6120e3826120b8565b9050919050565b5f6120f4826120d9565b9050919050565b612104816120ea565b82525050565b5f60208201905061211d5f8301846120fb565b92915050565b828183375f83830152505050565b5f61213c8385611fd1565b9350612149838584612123565b61215283611fef565b840190509392505050565b5f6020820190508181035f830152612176818486612131565b90509392505050565b5f80fd5b7f4e487b71000000000000000000000000000000000000000000000000000000005f52604160045260245ffd5b6121b982611fef565b810181811067ffffffffffffffff821117156121d8576121d7612183565b5b80604052505050565b5f6121ea611f0a565b90506121f682826121b0565b919050565b5f67ffffffffffffffff82111561221557612214612183565b5b61221e82611fef565b9050602081019050919050565b5f61223d612238846121fb565b6121e1565b9050828152602081018484840111156122595761225861217f565b5b612264848285611fe1565b509392505050565b5f82601f8301126122805761227f611f1b565b5b815161229084826020860161222b565b91505092915050565b5f602082840312156122ae576122ad611f13565b5b5f82015167ffffffffffffffff8111156122cb576122ca611f17565b5b6122d78482850161226c565b91505092915050565b5f82825260208201905092915050565b7f4554485f5452414e534645525f4641494c4544000000000000000000000000005f82015250565b5f6123246013836122e0565b915061232f826122f0565b602082019050919050565b5f6020820190508181035f83015261235181612318565b9050919050565b7f4e487b71000000000000000000000000000000000000000000000000000000005f52603260045260245ffd5b5f80fd5b5f80fd5b5f80fd5b5f80833560016020038436030381126123ad576123ac612385565b5b80840192508235915067ffffffffffffffff8211156123cf576123ce612389565b5b6020830192506001820236038313156123eb576123ea61238d565b5b509250929050565b5f819050919050565b612405816123f3565b82525050565b5f60408201905061241e5f8301856123fc565b61242b60208301846123fc565b9392505050565b5f6020820190506124455f8301846123fc565b92915050565b5f808335600160200384360303811261246757612466612385565b5b80840192508235915067ffffffffffffffff82111561248957612488612389565b5b6020830192506020820236038313156124a5576124a461238d565b5b509250929050565b6124b681612076565b81146124c0575f80fd5b50565b5f813590506124d1816124ad565b92915050565b5f602082840312156124ec576124eb611f13565b5b5f6124f9848285016124c3565b91505092915050565b5f6fffffffffffffffffffffffffffffffff82169050919050565b61252681612502565b8114612530575f80fd5b50565b5f813590506125418161251d565b92915050565b5f6020828403121561255c5761255b611f13565b5b5f61256984828501612533565b91505092915050565b5f8235600160a00383360303811261258d5761258c612385565b5b80830191505092915050565b5f6125b36125ae6125a984612502565b6120af565b6123f3565b9050919050565b6125c381612599565b82525050565b5f6040820190506125dc5f8301856125ba565b6125e960208301846125ba565b9392505050565b5f8115159050919050565b612604816125f0565b811461260e575f80fd5b50565b5f8135905061261f816125fb565b92915050565b5f6020828403121561263a57612639611f13565b5b5f61264784828501612611565b91505092915050565b5f80fd5b5f62ffffff82169050919050565b61266b81612654565b8114612675575f80fd5b50565b5f8135905061268681612662565b92915050565b5f8160020b9050919050565b6126a18161268c565b81146126ab575f80fd5b50565b5f813590506126bc81612698565b92915050565b5f6126cc82612076565b9050919050565b6126dc816126c2565b81146126e6575f80fd5b50565b5f813590506126f7816126d3565b92915050565b5f60a0828403121561271257612711612650565b5b61271c60a06121e1565b90505f61272b848285016124c3565b5f83015250602061273e848285016124c3565b602083015250604061275284828501612678565b6040830152506060612766848285016126ae565b606083015250608061277a848285016126e9565b60808301525092915050565b5f60a0828403121561279b5761279a611f13565b5b5f6127a8848285016126fd565b91505092915050565b5f819050919050565b7f4e487b71000000000000000000000000000000000000000000000000000000005f52601160045260245ffd5b5f6127f1826127b1565b91507f80000000000000000000000000000000000000000000000000000000000000008203612823576128226127ba565b5b815f039050919050565b5f612837826120d9565b9050919050565b6128478161282d565b82525050565b5f6020820190506128605f83018461283e565b92915050565b61286f816123f3565b8114612879575f80fd5b50565b5f8151905061288a81612866565b92915050565b5f602082840312156128a5576128a4611f13565b5b5f6128b28482850161287c565b91505092915050565b5f6060820190506128ce5f83018661283e565b6128db6020830185612087565b6128e860408301846123fc565b949350505050565b5f6128fa826123f3565b9150612905836123f3565b9250828202612913816123f3565b9150828204841483151761292a576129296127ba565b5b5092915050565b7f4e487b71000000000000000000000000000000000000000000000000000000005f52601260045260245ffd5b5f612968826123f3565b9150612973836123f3565b92508261298357612982612931565b5b828204905092915050565b5f602082840312156129a3576129a2611f13565b5b5f6129b084828501612678565b91505092915050565b5f602082840312156129ce576129cd611f13565b5b5f6129db848285016126ae565b91505092915050565b5f602082840312156129f9576129f8611f13565b5b5f612a06848285016126e9565b91505092915050565b612a188161282d565b82525050565b612a2781612654565b82525050565b612a368161268c565b82525050565b5f612a46826120d9565b9050919050565b612a5681612a3c565b82525050565b60a082015f820151612a705f850182612a0f565b506020820151612a836020850182612a0f565b506040820151612a966040850182612a1e565b506060820151612aa96060850182612a2d565b506080820151612abc6080850182612a4d565b50505050565b612acb816125f0565b82525050565b612ada816127b1565b82525050565b612ae981612057565b82525050565b606082015f820151612b035f850182612ac2565b506020820151612b166020850182612ad1565b506040820151612b296040850182612ae0565b50505050565b5f61012082019050612b435f830187612a5c565b612b5060a0830186612aef565b818103610100830152612b64818486612131565b905095945050505050565b612b78816127b1565b8114612b82575f80fd5b50565b5f81519050612b9381612b6f565b92915050565b5f60208284031215612bae57612bad611f13565b5b5f612bbb84828501612b85565b91505092915050565b5f819050919050565b612bd681612bc4565b82525050565b5f602082019050612bef5f830184612bcd565b92915050565b612bfe81612bc4565b8114612c08575f80fd5b50565b5f81519050612c1981612bf5565b92915050565b5f60208284031215612c3457612c33611f13565b5b5f612c4184828501612c0b565b91505092915050565b7f5452414e534645525f46524f4d5f4641494c45440000000000000000000000005f82015250565b5f612c7e6014836122e0565b9150612c8982612c4a565b602082019050919050565b5f6020820190508181035f830152612cab81612c72565b905091905056fea2646970667358221220a85e88e175f54bdefd325c455b18f5fad5f1de7090c78644fab6938c204d7ef164736f6c634300081a0033","linkReferences":{}},"methodIdentifiers":{"executeActions(bytes)":"4f84885b","executeActionsAndSweepExcessETH(bytes)":"a1bfb5ff","msgSender()":"d737d0c7","poolManager()":"dc4c90d3","unlockCallback(bytes)":"91dd7346"},"id":92}