{"abi":[{"type":"function","name":"and","inputs":[{"name":"offsets","type":"uint256","internalType":"uint256"},{"name":"data","type":"bytes","internalType":"bytes"}],"outputs":[{"name":"","type":"bool","internalType":"bool"}],"stateMutability":"view"},{"type":"function","name":"arbitraryStaticCall","inputs":[{"name":"target","type":"address","internalType":"address"},{"name":"data","type":"bytes","internalType":"bytes"}],"outputs":[{"name":"","type":"uint256","internalType":"uint256"}],"stateMutability":"view"},{"type":"function","name":"eq","inputs":[{"name":"value","type":"uint256","internalType":"uint256"},{"name":"data","type":"bytes","internalType":"bytes"}],"outputs":[{"name":"","type":"bool","internalType":"bool"}],"stateMutability":"view"},{"type":"function","name":"gt","inputs":[{"name":"value","type":"uint256","internalType":"uint256"},{"name":"data","type":"bytes","internalType":"bytes"}],"outputs":[{"name":"","type":"bool","internalType":"bool"}],"stateMutability":"view"},{"type":"function","name":"lt","inputs":[{"name":"value","type":"uint256","internalType":"uint256"},{"name":"data","type":"bytes","internalType":"bytes"}],"outputs":[{"name":"","type":"bool","internalType":"bool"}],"stateMutability":"view"},{"type":"function","name":"not","inputs":[{"name":"data","type":"bytes","internalType":"bytes"}],"outputs":[{"name":"","type":"bool","internalType":"bool"}],"stateMutability":"view"},{"type":"function","name":"or","inputs":[{"name":"offsets","type":"uint256","internalType":"uint256"},{"name":"data","type":"bytes","internalType":"bytes"}],"outputs":[{"name":"","type":"bool","internalType":"bool"}],"stateMutability":"view"},{"type":"error","name":"ArbitraryStaticCallFailed","inputs":[]}],"bytecode":{"object":"0x6080604052348015600e575f80fd5b506106a98061001c5f395ff3fe608060405234801561000f575f80fd5b506004361061007b575f3560e01c8063bf15fcd811610059578063bf15fcd81461010f578063bf7979591461013f578063bfa751431461016f578063ca4ece221461019f5761007b565b80634f38e2b81461007f5780636fe7b0ba146100af57806374261145146100df575b5f80fd5b61009960048036038101906100949190610477565b6101cf565b6040516100a691906104ee565b60405180910390f35b6100c960048036038101906100c49190610477565b6101f8565b6040516100d691906104ee565b60405180910390f35b6100f960048036038101906100f49190610477565b610221565b60405161010691906104ee565b60405180910390f35b61012960048036038101906101249190610561565b610293565b60405161013691906105cd565b60405180910390f35b610159600480360381019061015491906105e6565b6102e8565b60405161016691906104ee565b60405180910390f35b61018960048036038101906101849190610477565b610310565b60405161019691906104ee565b60405180910390f35b6101b960048036038101906101b49190610477565b610383565b6040516101c691906104ee565b60405180910390f35b5f805f6101dd3086866103ac565b915091508180156101ed57508581115b925050509392505050565b5f805f6102063086866103ac565b9150915081801561021657508581145b925050509392505050565b5f805f5b5f8663ffffffff1691508114610286575f806102523088888790879261024d93929190610639565b6103ac565b915091508180156102635750600181145b1561027557600194505050505061028c565b8293505050602086901c9550610225565b505f9150505b9392505050565b5f805f6102a18686866103ac565b91509150816102dc576040517f1f1b8f6100000000000000000000000000000000000000000000000000000000815260040160405180910390fd5b80925050509392505050565b5f805f6102f63086866103ac565b9150915081801561030657505f81145b9250505092915050565b5f805f5b5f8663ffffffff1691508114610375575f806103413088888790879261033c93929190610639565b6103ac565b91509150811580610353575060018114155b15610364575f94505050505061037c565b8293505050602086901c9550610314565b5060019150505b9392505050565b5f805f6103913086866103ac565b915091508180156103a157508581105b925050509392505050565b5f806040518385823760205f8583895afa925060203d148316925082156103d2575f5191505b50935093915050565b5f80fd5b5f80fd5b5f819050919050565b6103f5816103e3565b81146103ff575f80fd5b50565b5f81359050610410816103ec565b92915050565b5f80fd5b5f80fd5b5f80fd5b5f8083601f84011261043757610436610416565b5b8235905067ffffffffffffffff8111156104545761045361041a565b5b6020830191508360018202830111156104705761046f61041e565b5b9250929050565b5f805f6040848603121561048e5761048d6103db565b5b5f61049b86828701610402565b935050602084013567ffffffffffffffff8111156104bc576104bb6103df565b5b6104c886828701610422565b92509250509250925092565b5f8115159050919050565b6104e8816104d4565b82525050565b5f6020820190506105015f8301846104df565b92915050565b5f73ffffffffffffffffffffffffffffffffffffffff82169050919050565b5f61053082610507565b9050919050565b61054081610526565b811461054a575f80fd5b50565b5f8135905061055b81610537565b92915050565b5f805f60408486031215610578576105776103db565b5b5f6105858682870161054d565b935050602084013567ffffffffffffffff8111156105a6576105a56103df565b5b6105b286828701610422565b92509250509250925092565b6105c7816103e3565b82525050565b5f6020820190506105e05f8301846105be565b92915050565b5f80602083850312156105fc576105fb6103db565b5b5f83013567ffffffffffffffff811115610619576106186103df565b5b61062585828601610422565b92509250509250929050565b5f80fd5b5f80fd5b5f808585111561064c5761064b610631565b5b8386111561065d5761065c610635565b5b600185028301915084860390509450949250505056fea2646970667358221220db81c91222a0a7a206c2e1a3aeae28a155cf5a598e943697210444c316a6ae2d64736f6c634300081a0033","linkReferences":{}},"methodIdentifiers":{"and(uint256,bytes)":"bfa75143","arbitraryStaticCall(address,bytes)":"bf15fcd8","eq(uint256,bytes)":"6fe7b0ba","gt(uint256,bytes)":"4f38e2b8","lt(uint256,bytes)":"ca4ece22","not(bytes)":"bf797959","or(uint256,bytes)":"74261145"},"id":98}