{"abi":[{"type":"constructor","inputs":[{"name":"reactiveHook","type":"address","internalType":"contract IReactiveHooks"},{"name":"eventKey","type":"uint224","internalType":"EventKey"},{"name":"eventData","type":"tuple","internalType":"struct EventData","components":[{"name":"topic1","type":"uint256","internalType":"uint256"},{"name":"topic2","type":"uint256","internalType":"uint256"},{"name":"topic3","type":"uint256","internalType":"uint256"},{"name":"data","type":"bytes","internalType":"bytes"}]},{"name":"_callData","type":"tuple","internalType":"struct Calldata","components":[{"name":"executor","type":"address","internalType":"address"},{"name":"callData","type":"bytes","internalType":"bytes"}]}],"stateMutability":"nonpayable"},{"type":"receive","stateMutability":"payable"},{"type":"function","name":"CALLBACK_GAS_LIMIT","inputs":[],"outputs":[{"name":"","type":"uint64","internalType":"uint64"}],"stateMutability":"view"},{"type":"function","name":"CALLDATA","inputs":[],"outputs":[{"name":"executor","type":"address","internalType":"address"},{"name":"callData","type":"bytes","internalType":"bytes"}],"stateMutability":"view"},{"type":"function","name":"EVENT_DATA","inputs":[],"outputs":[{"name":"topic1","type":"uint256","internalType":"uint256"},{"name":"topic2","type":"uint256","internalType":"uint256"},{"name":"topic3","type":"uint256","internalType":"uint256"},{"name":"data","type":"bytes","internalType":"bytes"}],"stateMutability":"view"},{"type":"function","name":"EVENT_KEY","inputs":[],"outputs":[{"name":"","type":"uint224","internalType":"EventKey"}],"stateMutability":"view"},{"type":"function","name":"REACTIVE_HOOK","inputs":[],"outputs":[{"name":"","type":"address","internalType":"contract IReactiveHooks"}],"stateMutability":"view"},{"type":"function","name":"and","inputs":[{"name":"offsets","type":"uint256","internalType":"uint256"},{"name":"data","type":"bytes","internalType":"bytes"}],"outputs":[{"name":"","type":"bool","internalType":"bool"}],"stateMutability":"view"},{"type":"function","name":"arbitraryStaticCall","inputs":[{"name":"target","type":"address","internalType":"address"},{"name":"data","type":"bytes","internalType":"bytes"}],"outputs":[{"name":"","type":"uint256","internalType":"uint256"}],"stateMutability":"view"},{"type":"function","name":"coverDebt","inputs":[],"outputs":[],"stateMutability":"nonpayable"},{"type":"function","name":"eq","inputs":[{"name":"value","type":"uint256","internalType":"uint256"},{"name":"data","type":"bytes","internalType":"bytes"}],"outputs":[{"name":"","type":"bool","internalType":"bool"}],"stateMutability":"view"},{"type":"function","name":"getGasLimit","inputs":[],"outputs":[{"name":"","type":"bytes32","internalType":"bytes32"}],"stateMutability":"view"},{"type":"function","name":"gt","inputs":[{"name":"value","type":"uint256","internalType":"uint256"},{"name":"data","type":"bytes","internalType":"bytes"}],"outputs":[{"name":"","type":"bool","internalType":"bool"}],"stateMutability":"view"},{"type":"function","name":"lt","inputs":[{"name":"value","type":"uint256","internalType":"uint256"},{"name":"data","type":"bytes","internalType":"bytes"}],"outputs":[{"name":"","type":"bool","internalType":"bool"}],"stateMutability":"view"},{"type":"function","name":"not","inputs":[{"name":"data","type":"bytes","internalType":"bytes"}],"outputs":[{"name":"","type":"bool","internalType":"bool"}],"stateMutability":"view"},{"type":"function","name":"or","inputs":[{"name":"offsets","type":"uint256","internalType":"uint256"},{"name":"data","type":"bytes","internalType":"bytes"}],"outputs":[{"name":"","type":"bool","internalType":"bool"}],"stateMutability":"view"},{"type":"function","name":"pay","inputs":[{"name":"amount","type":"uint256","internalType":"uint256"}],"outputs":[],"stateMutability":"nonpayable"},{"type":"function","name":"react","inputs":[{"name":"log","type":"tuple","internalType":"struct IReactive.LogRecord","components":[{"name":"chain_id","type":"uint256","internalType":"uint256"},{"name":"_contract","type":"address","internalType":"address"},{"name":"topic_0","type":"uint256","internalType":"uint256"},{"name":"topic_1","type":"uint256","internalType":"uint256"},{"name":"topic_2","type":"uint256","internalType":"uint256"},{"name":"topic_3","type":"uint256","internalType":"uint256"},{"name":"data","type":"bytes","internalType":"bytes"},{"name":"block_number","type":"uint256","internalType":"uint256"},{"name":"op_code","type":"uint256","internalType":"uint256"},{"name":"block_hash","type":"uint256","internalType":"uint256"},{"name":"tx_hash","type":"uint256","internalType":"uint256"},{"name":"log_index","type":"uint256","internalType":"uint256"}]}],"outputs":[],"stateMutability":"nonpayable"},{"type":"function","name":"setGasLimit","inputs":[{"name":"_gasLimit","type":"uint64","internalType":"uint64"}],"outputs":[],"stateMutability":"nonpayable"},{"type":"event","name":"Callback","inputs":[{"name":"chain_id","type":"uint256","indexed":true,"internalType":"uint256"},{"name":"_contract","type":"address","indexed":true,"internalType":"address"},{"name":"gas_limit","type":"uint64","indexed":true,"internalType":"uint64"},{"name":"payload","type":"bytes","indexed":false,"internalType":"bytes"}],"anonymous":false},{"type":"error","name":"ArbitraryStaticCallFailed","inputs":[]},{"type":"error","name":"InvalidCalldataLength","inputs":[{"name":"data","type":"bytes","internalType":"bytes"}]}],"bytecode":{"object":"0x60e0604052620f424067ffffffffffffffff1660809067ffffffffffffffff1681525034801561002d575f80fd5b5060405161242e38038061242e833981810160405281019061004f919061084a565b62ffffff600260016101000a81548173ffffffffffffffffffffffffffffffffffffffff021916908373ffffffffffffffffffffffffffffffffffffffff16021790555f806101000a81548173ffffffffffffffffffffffffffffffffffffffff021916908373ffffffffffffffffffffffffffffffffffffffff1602179055506100e262ffffff6103c660201b60201c565b6100f061041d60201b60201c565b806020015160188151101561013c57806040517f306310de0000000000000000000000000000000000000000000000000000000081526004016101339190610938565b60405180910390fd5b8473ffffffffffffffffffffffffffffffffffffffff1660a08173ffffffffffffffffffffffffffffffffffffffff16815250508260035f820151815f0155602082015181600101556040820151816002015560608201518160030190816101a49190610b52565b509050508160075f820151815f015f6101000a81548173ffffffffffffffffffffffffffffffffffffffff021916908373ffffffffffffffffffffffffffffffffffffffff16021790555060208201518160010190816102049190610b52565b50905050837bffffffffffffffffffffffffffffffffffffffffffffffffffffffff1660c0817bffffffffffffffffffffffffffffffffffffffffffffffffffffffff168152505060025f9054906101000a900460ff166103bc57600260019054906101000a900473ffffffffffffffffffffffffffffffffffffffff1673ffffffffffffffffffffffffffffffffffffffff16635a6aced06102cc60c0517bffffffffffffffffffffffffffffffffffffffffffffffffffffffff1661044360201b60201c565b6102fb60c0517bffffffffffffffffffffffffffffffffffffffffffffffffffffffff1661048c60201b60201c565b61032a60c0517bffffffffffffffffffffffffffffffffffffffffffffffffffffffff166104b760201b60201c565b7fa65f96fc951c35ead38878e0f0b7a3c744a6f5ccc1476b313353ce31712313ad807fa65f96fc951c35ead38878e0f0b7a3c744a6f5ccc1476b313353ce31712313ad6040518763ffffffff1660e01b815260040161038e96959493929190610c3f565b5f604051808303815f87803b1580156103a5575f80fd5b505af11580156103b7573d5f803e3d5ffd5b505050505b5050505050610c9e565b6001805f8373ffffffffffffffffffffffffffffffffffffffff1673ffffffffffffffffffffffffffffffffffffffff1681526020019081526020015f205f6101000a81548160ff02191690831515021790555050565b5f62ffffff3b90505f811460025f6101000a81548160ff02191690831515021790555050565b5f60a0827bffffffffffffffffffffffffffffffffffffffffffffffffffffffff16901c7bffffffffffffffffffffffffffffffffffffffffffffffffffffffff169050919050565b5f6010827bffffffffffffffffffffffffffffffffffffffffffffffffffffffff16901c9050919050565b5f61ffff82167bffffffffffffffffffffffffffffffffffffffffffffffffffffffff169050919050565b5f604051905090565b5f80fd5b5f80fd5b5f73ffffffffffffffffffffffffffffffffffffffff82169050919050565b5f61051c826104f3565b9050919050565b5f61052d82610512565b9050919050565b61053d81610523565b8114610547575f80fd5b50565b5f8151905061055881610534565b92915050565b5f7bffffffffffffffffffffffffffffffffffffffffffffffffffffffff82169050919050565b61058e8161055e565b8114610598575f80fd5b50565b5f815190506105a981610585565b92915050565b5f80fd5b5f601f19601f8301169050919050565b7f4e487b71000000000000000000000000000000000000000000000000000000005f52604160045260245ffd5b6105f9826105b3565b810181811067ffffffffffffffff82111715610618576106176105c3565b5b80604052505050565b5f61062a6104e2565b905061063682826105f0565b919050565b5f80fd5b5f819050919050565b6106518161063f565b811461065b575f80fd5b50565b5f8151905061066c81610648565b92915050565b5f80fd5b5f80fd5b5f67ffffffffffffffff821115610694576106936105c3565b5b61069d826105b3565b9050602081019050919050565b8281835e5f83830152505050565b5f6106ca6106c58461067a565b610621565b9050828152602081018484840111156106e6576106e5610676565b5b6106f18482856106aa565b509392505050565b5f82601f83011261070d5761070c610672565b5b815161071d8482602086016106b8565b91505092915050565b5f6080828403121561073b5761073a6105af565b5b6107456080610621565b90505f6107548482850161065e565b5f8301525060206107678482850161065e565b602083015250604061077b8482850161065e565b604083015250606082015167ffffffffffffffff81111561079f5761079e61063b565b5b6107ab848285016106f9565b60608301525092915050565b6107c081610512565b81146107ca575f80fd5b50565b5f815190506107db816107b7565b92915050565b5f604082840312156107f6576107f56105af565b5b6108006040610621565b90505f61080f848285016107cd565b5f83015250602082015167ffffffffffffffff8111156108325761083161063b565b5b61083e848285016106f9565b60208301525092915050565b5f805f8060808587031215610862576108616104eb565b5b5f61086f8782880161054a565b94505060206108808782880161059b565b935050604085015167ffffffffffffffff8111156108a1576108a06104ef565b5b6108ad87828801610726565b925050606085015167ffffffffffffffff8111156108ce576108cd6104ef565b5b6108da878288016107e1565b91505092959194509250565b5f81519050919050565b5f82825260208201905092915050565b5f61090a826108e6565b61091481856108f0565b93506109248185602086016106aa565b61092d816105b3565b840191505092915050565b5f6020820190508181035f8301526109508184610900565b905092915050565b7f4e487b71000000000000000000000000000000000000000000000000000000005f52602260045260245ffd5b5f600282049050600182168061099c57607f821691505b6020821081036109af576109ae610958565b5b50919050565b5f819050815f5260205f209050919050565b5f6020601f8301049050919050565b5f82821b905092915050565b5f60088302610a117fffffffffffffffffffffffffffffffffffffffffffffffffffffffffffffffff826109d6565b610a1b86836109d6565b95508019841693508086168417925050509392505050565b5f819050919050565b5f610a56610a51610a4c8461063f565b610a33565b61063f565b9050919050565b5f819050919050565b610a6f83610a3c565b610a83610a7b82610a5d565b8484546109e2565b825550505050565b5f90565b610a97610a8b565b610aa2818484610a66565b505050565b5b81811015610ac557610aba5f82610a8f565b600181019050610aa8565b5050565b601f821115610b0a57610adb816109b5565b610ae4846109c7565b81016020851015610af3578190505b610b07610aff856109c7565b830182610aa7565b50505b505050565b5f82821c905092915050565b5f610b2a5f1984600802610b0f565b1980831691505092915050565b5f610b428383610b1b565b9150826002028217905092915050565b610b5b826108e6565b67ffffffffffffffff811115610b7457610b736105c3565b5b610b7e8254610985565b610b89828285610ac9565b5f60209050601f831160018114610bba575f8415610ba8578287015190505b610bb28582610b37565b865550610c19565b601f198416610bc8866109b5565b5f5b82811015610bef57848901518255600182019150602085019450602081019050610bca565b86831015610c0c5784890151610c08601f891682610b1b565b8355505b6001600288020188555050505b505050505050565b610c2a8161063f565b82525050565b610c3981610512565b82525050565b5f60c082019050610c525f830189610c21565b610c5f6020830188610c30565b610c6c6040830187610c21565b610c796060830186610c21565b610c866080830185610c21565b610c9360a0830184610c21565b979650505050505050565b60805160a05160c051611751610cdd5f395f818161044001526104b501525f8181610614015261078a01525f81816105d6015261073d01526117515ff3fe608060405260043610610101575f3560e01c80637426114511610094578063bf15fcd811610063578063bf15fcd814610326578063bf79795914610362578063bfa751431461039e578063c290d691146103da578063ca4ece221461040257610108565b806374261145146102815780637a90b990146102bd578063a1e01ab3146102d3578063b40a817c146102fe57610108565b806333d608f1116100d057806333d608f1146101b55780634f38e2b8146101df57806361c5d2901461021b5780636fe7b0ba1461024557610108565b806309942dd51461010c5780630d152c2c146101365780631a93d1c31461015e57806332fc156e1461018857610108565b3661010857005b5f80fd5b348015610117575f80fd5b5061012061043e565b60405161012d9190610dc4565b60405180910390f35b348015610141575f80fd5b5061015c60048036038101906101579190610e08565b610462565b005b348015610169575f80fd5b5061017261068a565b60405161017f9190610e67565b60405180910390f35b348015610193575f80fd5b5061019c610698565b6040516101ac9493929190610f08565b60405180910390f35b3480156101c0575f80fd5b506101c961073b565b6040516101d69190610f74565b60405180910390f35b3480156101ea575f80fd5b5061020560048036038101906102009190611018565b61075f565b604051610212919061108f565b60405180910390f35b348015610226575f80fd5b5061022f610788565b60405161023c9190611119565b60405180910390f35b348015610250575f80fd5b5061026b60048036038101906102669190611018565b6107ac565b604051610278919061108f565b60405180910390f35b34801561028c575f80fd5b506102a760048036038101906102a29190611018565b6107d5565b6040516102b4919061108f565b60405180910390f35b3480156102c8575f80fd5b506102d1610847565b005b3480156102de575f80fd5b506102e761090e565b6040516102f5929190611152565b60405180910390f35b348015610309575f80fd5b50610324600480360381019061031f91906111aa565b6109c4565b005b348015610331575f80fd5b5061034c600480360381019061034791906111ff565b6109ea565b604051610359919061125c565b60405180910390f35b34801561036d575f80fd5b5061038860048036038101906103839190611275565b610a3f565b604051610395919061108f565b60405180910390f35b3480156103a9575f80fd5b506103c460048036038101906103bf9190611018565b610a67565b6040516103d1919061108f565b60405180910390f35b3480156103e5575f80fd5b5061040060048036038101906103fb91906112c0565b610ada565b005b34801561040d575f80fd5b5061042860048036038101906104239190611018565b610b70565b604051610435919061108f565b60405180910390f35b7f000000000000000000000000000000000000000000000000000000000000000081565b60025f9054906101000a900460ff166104b0576040517f08c379a00000000000000000000000000000000000000000000000000000000081526004016104a790611345565b60405180910390fd5b6104f77f00000000000000000000000000000000000000000000000000000000000000007bffffffffffffffffffffffffffffffffffffffffffffffffffffffff16610b99565b73ffffffffffffffffffffffffffffffffffffffff168160200160208101906105209190611363565b73ffffffffffffffffffffffffffffffffffffffff1614801561054a575060035f01548160400135145b801561055e57506003600101548160600135145b801561057257506003600201548160800135145b15610687575f60075f015f9054906101000a900473ffffffffffffffffffffffffffffffffffffffff1660076001016040516020016105b292919061147e565b60405160208183030381529060405290505f6105cc610bc4565b5f801b036105fa577f0000000000000000000000000000000000000000000000000000000000000000610605565b610602610bc4565b5f1c5b90508067ffffffffffffffff167f000000000000000000000000000000000000000000000000000000000000000073ffffffffffffffffffffffffffffffffffffffff16845f01357f8dd725fa9d6cd150017ab9e60318d40616439424e2fade9c1c58854950917dfc8560405161067c91906114ac565b60405180910390a450505b50565b5f610693610bc4565b905090565b6003805f0154908060010154908060020154908060030180546106ba906113bb565b80601f01602080910402602001604051908101604052809291908181526020018280546106e6906113bb565b80156107315780601f1061070857610100808354040283529160200191610731565b820191905f5260205f20905b81548152906001019060200180831161071457829003601f168201915b5050505050905084565b7f000000000000000000000000000000000000000000000000000000000000000081565b5f805f61076d308686610bee565b9150915081801561077d57508581115b925050509392505050565b7f000000000000000000000000000000000000000000000000000000000000000081565b5f805f6107ba308686610bee565b915091508180156107ca57508581145b925050509392505050565b5f805f5b5f8663ffffffff169150811461083a575f8061080630888887908792610801939291906114d4565b610bee565b915091508180156108175750600181145b15610829576001945050505050610840565b8293505050602086901c95506107d9565b505f9150505b9392505050565b5f805f9054906101000a900473ffffffffffffffffffffffffffffffffffffffff1673ffffffffffffffffffffffffffffffffffffffff16639b6c56ec306040518263ffffffff1660e01b81526004016108a1919061150e565b602060405180830381865afa1580156108bc573d5f803e3d5ffd5b505050506040513d601f19601f820116820180604052508101906108e0919061153b565b905061090b5f8054906101000a900473ffffffffffffffffffffffffffffffffffffffff1682610c1d565b50565b6007805f015f9054906101000a900473ffffffffffffffffffffffffffffffffffffffff1690806001018054610943906113bb565b80601f016020809104026020016040519081016040528092919081815260200182805461096f906113bb565b80156109ba5780601f10610991576101008083540402835291602001916109ba565b820191905f5260205f20905b81548152906001019060200180831161099d57829003601f168201915b5050505050905082565b807f96b0c8ad3e900a7b6d91877104d0239a0a4cf3596bfa1dd265a801c5e293d83e5d50565b5f805f6109f8868686610bee565b9150915081610a33576040517f1f1b8f6100000000000000000000000000000000000000000000000000000000815260040160405180910390fd5b80925050509392505050565b5f805f610a4d308686610bee565b91509150818015610a5d57505f81145b9250505092915050565b5f805f5b5f8663ffffffff1691508114610acc575f80610a9830888887908792610a93939291906114d4565b610bee565b91509150811580610aaa575060018114155b15610abb575f945050505050610ad3565b8293505050602086901c9550610a6b565b5060019150505b9392505050565b60015f3373ffffffffffffffffffffffffffffffffffffffff1673ffffffffffffffffffffffffffffffffffffffff1681526020019081526020015f205f9054906101000a900460ff16610b63576040517f08c379a0000000000000000000000000000000000000000000000000000000008152600401610b5a906115b0565b60405180910390fd5b610b6d3382610c1d565b50565b5f805f610b7e308686610bee565b91509150818015610b8e57508581105b925050509392505050565b5f6010827bffffffffffffffffffffffffffffffffffffffffffffffffffffffff16901c9050919050565b5f7f96b0c8ad3e900a7b6d91877104d0239a0a4cf3596bfa1dd265a801c5e293d83e5c5f5260205ff35b5f806040518385823760205f8583895afa925060203d14831692508215610c14575f5191505b50935093915050565b80471015610c60576040517f08c379a0000000000000000000000000000000000000000000000000000000008152600401610c5790611618565b60405180910390fd5b5f811115610d60575f8273ffffffffffffffffffffffffffffffffffffffff16825f67ffffffffffffffff811115610c9b57610c9a611636565b5b6040519080825280601f01601f191660200182016040528015610ccd5781602001600182028036833780820191505090505b50604051610cdb919061169d565b5f6040518083038185875af1925050503d805f8114610d15576040519150601f19603f3d011682016040523d82523d5f602084013e610d1a565b606091505b5050905080610d5e576040517f08c379a0000000000000000000000000000000000000000000000000000000008152600401610d55906116fd565b60405180910390fd5b505b5050565b5f7bffffffffffffffffffffffffffffffffffffffffffffffffffffffff82169050919050565b5f819050919050565b5f610dae610da9610da484610d64565b610d8b565b610d64565b9050919050565b610dbe81610d94565b82525050565b5f602082019050610dd75f830184610db5565b92915050565b5f80fd5b5f80fd5b5f80fd5b5f6101808284031215610dff57610dfe610de5565b5b81905092915050565b5f60208284031215610e1d57610e1c610ddd565b5b5f82013567ffffffffffffffff811115610e3a57610e39610de1565b5b610e4684828501610de9565b91505092915050565b5f819050919050565b610e6181610e4f565b82525050565b5f602082019050610e7a5f830184610e58565b92915050565b5f819050919050565b610e9281610e80565b82525050565b5f81519050919050565b5f82825260208201905092915050565b8281835e5f83830152505050565b5f601f19601f8301169050919050565b5f610eda82610e98565b610ee48185610ea2565b9350610ef4818560208601610eb2565b610efd81610ec0565b840191505092915050565b5f608082019050610f1b5f830187610e89565b610f286020830186610e89565b610f356040830185610e89565b8181036060830152610f478184610ed0565b905095945050505050565b5f67ffffffffffffffff82169050919050565b610f6e81610f52565b82525050565b5f602082019050610f875f830184610f65565b92915050565b610f9681610e80565b8114610fa0575f80fd5b50565b5f81359050610fb181610f8d565b92915050565b5f80fd5b5f80fd5b5f80fd5b5f8083601f840112610fd857610fd7610fb7565b5b8235905067ffffffffffffffff811115610ff557610ff4610fbb565b5b60208301915083600182028301111561101157611010610fbf565b5b9250929050565b5f805f6040848603121561102f5761102e610ddd565b5b5f61103c86828701610fa3565b935050602084013567ffffffffffffffff81111561105d5761105c610de1565b5b61106986828701610fc3565b92509250509250925092565b5f8115159050919050565b61108981611075565b82525050565b5f6020820190506110a25f830184611080565b92915050565b5f73ffffffffffffffffffffffffffffffffffffffff82169050919050565b5f6110e16110dc6110d7846110a8565b610d8b565b6110a8565b9050919050565b5f6110f2826110c7565b9050919050565b5f611103826110e8565b9050919050565b611113816110f9565b82525050565b5f60208201905061112c5f83018461110a565b92915050565b5f61113c826110a8565b9050919050565b61114c81611132565b82525050565b5f6040820190506111655f830185611143565b81810360208301526111778184610ed0565b90509392505050565b61118981610f52565b8114611193575f80fd5b50565b5f813590506111a481611180565b92915050565b5f602082840312156111bf576111be610ddd565b5b5f6111cc84828501611196565b91505092915050565b6111de81611132565b81146111e8575f80fd5b50565b5f813590506111f9816111d5565b92915050565b5f805f6040848603121561121657611215610ddd565b5b5f611223868287016111eb565b935050602084013567ffffffffffffffff81111561124457611243610de1565b5b61125086828701610fc3565b92509250509250925092565b5f60208201905061126f5f830184610e89565b92915050565b5f806020838503121561128b5761128a610ddd565b5b5f83013567ffffffffffffffff8111156112a8576112a7610de1565b5b6112b485828601610fc3565b92509250509250929050565b5f602082840312156112d5576112d4610ddd565b5b5f6112e284828501610fa3565b91505092915050565b5f82825260208201905092915050565b7f564d206f6e6c79000000000000000000000000000000000000000000000000005f82015250565b5f61132f6007836112eb565b915061133a826112fb565b602082019050919050565b5f6020820190508181035f83015261135c81611323565b9050919050565b5f6020828403121561137857611377610ddd565b5b5f611385848285016111eb565b91505092915050565b7f4e487b71000000000000000000000000000000000000000000000000000000005f52602260045260245ffd5b5f60028204905060018216806113d257607f821691505b6020821081036113e5576113e461138e565b5b50919050565b5f819050815f5260205f209050919050565b5f8154611409816113bb565b6114138186610ea2565b9450600182165f811461142d576001811461144357611475565b60ff198316865281151560200286019350611475565b61144c856113eb565b5f5b8381101561146d5781548189015260018201915060208101905061144e565b808801955050505b50505092915050565b5f6040820190506114915f830185611143565b81810360208301526114a381846113fd565b90509392505050565b5f6020820190508181035f8301526114c48184610ed0565b905092915050565b5f80fd5b5f80fd5b5f80858511156114e7576114e66114cc565b5b838611156114f8576114f76114d0565b5b6001850283019150848603905094509492505050565b5f6020820190506115215f830184611143565b92915050565b5f8151905061153581610f8d565b92915050565b5f602082840312156115505761154f610ddd565b5b5f61155d84828501611527565b91505092915050565b7f417574686f72697a65642073656e646572206f6e6c79000000000000000000005f82015250565b5f61159a6016836112eb565b91506115a582611566565b602082019050919050565b5f6020820190508181035f8301526115c78161158e565b9050919050565b7f496e73756666696369656e742066756e647300000000000000000000000000005f82015250565b5f6116026012836112eb565b915061160d826115ce565b602082019050919050565b5f6020820190508181035f83015261162f816115f6565b9050919050565b7f4e487b71000000000000000000000000000000000000000000000000000000005f52604160045260245ffd5b5f81905092915050565b5f61167782610e98565b6116818185611663565b9350611691818560208601610eb2565b80840191505092915050565b5f6116a8828461166d565b915081905092915050565b7f5472616e73666572206661696c656400000000000000000000000000000000005f82015250565b5f6116e7600f836112eb565b91506116f2826116b3565b602082019050919050565b5f6020820190508181035f830152611714816116db565b905091905056fea26469706673582212202fec5031689b6fb7ed2a9987b2190c15c0eec216e39f902192858a9a8f2b6c3f64736f6c634300081a0033","linkReferences":{}},"methodIdentifiers":{"CALLBACK_GAS_LIMIT()":"33d608f1","CALLDATA()":"a1e01ab3","EVENT_DATA()":"32fc156e","EVENT_KEY()":"09942dd5","REACTIVE_HOOK()":"61c5d290","and(uint256,bytes)":"bfa75143","arbitraryStaticCall(address,bytes)":"bf15fcd8","coverDebt()":"7a90b990","eq(uint256,bytes)":"6fe7b0ba","getGasLimit()":"1a93d1c3","gt(uint256,bytes)":"4f38e2b8","lt(uint256,bytes)":"ca4ece22","not(bytes)":"bf797959","or(uint256,bytes)":"74261145","pay(uint256)":"c290d691","react((uint256,address,uint256,uint256,uint256,uint256,bytes,uint256,uint256,uint256,uint256,uint256))":"0d152c2c","setGasLimit(uint64)":"b40a817c"},"id":95}